{
  "contractName": "FirmwareRepo",
  "abi": [
    {
      "inputs": [],
      "payable": false,
      "stateMutability": "nonpayable",
      "type": "constructor"
    },
    {
      "constant": true,
      "inputs": [],
      "name": "trust_address",
      "outputs": [
        {
          "name": "",
          "type": "address"
        }
      ],
      "payable": false,
      "stateMutability": "view",
      "type": "function"
    },
    {
      "constant": true,
      "inputs": [],
      "name": "get_d",
      "outputs": [
        {
          "name": "",
          "type": "uint256"
        }
      ],
      "payable": false,
      "stateMutability": "view",
      "type": "function"
    },
    {
      "constant": true,
      "inputs": [],
      "name": "get_t",
      "outputs": [
        {
          "name": "",
          "type": "uint256"
        }
      ],
      "payable": false,
      "stateMutability": "view",
      "type": "function"
    },
    {
      "constant": true,
      "inputs": [],
      "name": "get_c",
      "outputs": [
        {
          "name": "",
          "type": "bytes32"
        }
      ],
      "payable": false,
      "stateMutability": "view",
      "type": "function"
    },
    {
      "constant": false,
      "inputs": [
        {
          "name": "nonce",
          "type": "uint256"
        }
      ],
      "name": "proofOfWork",
      "outputs": [],
      "payable": false,
      "stateMutability": "nonpayable",
      "type": "function"
    },
    {
      "constant": false,
      "inputs": [
        {
          "name": "firmware_hash_",
          "type": "bytes32"
        },
        {
          "name": "IPFS_link_",
          "type": "string"
        },
        {
          "name": "description_",
          "type": "string"
        },
        {
          "name": "device_type_",
          "type": "string"
        },
        {
          "name": "stable",
          "type": "bool"
        }
      ],
      "name": "add_firmware",
      "outputs": [],
      "payable": false,
      "stateMutability": "nonpayable",
      "type": "function"
    },
    {
      "constant": false,
      "inputs": [
        {
          "name": "description_",
          "type": "string"
        },
        {
          "name": "device_type",
          "type": "string"
        },
        {
          "name": "stable",
          "type": "bool"
        }
      ],
      "name": "edit_description",
      "outputs": [],
      "payable": false,
      "stateMutability": "nonpayable",
      "type": "function"
    },
    {
      "constant": true,
      "inputs": [
        {
          "name": "device_type",
          "type": "string"
        },
        {
          "name": "mf_address",
          "type": "address"
        },
        {
          "name": "stable",
          "type": "bool"
        }
      ],
      "name": "get_firmware",
      "outputs": [
        {
          "name": "",
          "type": "bytes32"
        },
        {
          "name": "",
          "type": "string"
        },
        {
          "name": "",
          "type": "string"
        },
        {
          "name": "",
          "type": "uint256"
        }
      ],
      "payable": false,
      "stateMutability": "view",
      "type": "function"
    },
    {
      "constant": true,
      "inputs": [
        {
          "name": "device_type",
          "type": "string"
        },
        {
          "name": "i",
          "type": "uint256"
        }
      ],
      "name": "get_developer",
      "outputs": [
        {
          "name": "",
          "type": "address"
        }
      ],
      "payable": false,
      "stateMutability": "view",
      "type": "function"
    },
    {
      "constant": true,
      "inputs": [
        {
          "name": "device_type",
          "type": "string"
        },
        {
          "name": "stable",
          "type": "bool"
        }
      ],
      "name": "get_most_trusted_firmware",
      "outputs": [
        {
          "name": "",
          "type": "bytes32"
        },
        {
          "name": "",
          "type": "string"
        },
        {
          "name": "",
          "type": "string"
        },
        {
          "name": "",
          "type": "uint256"
        },
        {
          "name": "",
          "type": "address"
        },
        {
          "name": "",
          "type": "int256"
        }
      ],
      "payable": false,
      "stateMutability": "view",
      "type": "function"
    },
    {
      "constant": false,
      "inputs": [
        {
          "name": "v",
          "type": "uint256"
        }
      ],
      "name": "set_version",
      "outputs": [
        {
          "name": "",
          "type": "address"
        }
      ],
      "payable": false,
      "stateMutability": "nonpayable",
      "type": "function"
    },
    {
      "constant": true,
      "inputs": [],
      "name": "get_version",
      "outputs": [
        {
          "name": "",
          "type": "uint256"
        }
      ],
      "payable": false,
      "stateMutability": "view",
      "type": "function"
    },
    {
      "constant": false,
      "inputs": [
        {
          "name": "v",
          "type": "uint256"
        }
      ],
      "name": "set_trust_version",
      "outputs": [],
      "payable": false,
      "stateMutability": "nonpayable",
      "type": "function"
    },
    {
      "constant": true,
      "inputs": [],
      "name": "get_trust_version",
      "outputs": [
        {
          "name": "",
          "type": "uint256"
        }
      ],
      "payable": false,
      "stateMutability": "view",
      "type": "function"
    }
  ],
  "bytecode": "0x608060405260016000553480156200001657600080fd5b5062000021620000f0565b604051809103906000f0801580156200003e573d6000803e3d6000fd5b50600260006101000a81548173ffffffffffffffffffffffffffffffffffffffff021916908373ffffffffffffffffffffffffffffffffffffffff160217905550600260009054906101000a900473ffffffffffffffffffffffffffffffffffffffff16600160006101000a81548173ffffffffffffffffffffffffffffffffffffffff021916908373ffffffffffffffffffffffffffffffffffffffff160217905550600260008190555062000101565b60405161140a8062002aa483390190565b61299380620001116000396000f3006080604052600436106100d0576000357c0100000000000000000000000000000000000000000000000000000000900463ffffffff168063017f12b1146100d55780630941bde01461011257806309de84001461013d5780631bee7a41146101685780635c10fe08146101aa5780636c6ec15a146101d357806373fae8201461021057806383eb754d1461023b5780639017946514610264578063b2586f171461028f578063d987ee61146102ba578063dbcbb701146102e3578063e34475e014610323578063fd59b16f1461034c575b600080fd5b3480156100e157600080fd5b506100fc60048036036100f7919081019061256f565b610377565b60405161010991906126be565b60405180910390f35b34801561011e57600080fd5b506101276104a4565b60405161013491906127ff565b60405180910390f35b34801561014957600080fd5b506101526104eb565b60405161015f91906127ff565b60405180910390f35b34801561017457600080fd5b5061018f600480360361018a919081019061249c565b6105b0565b6040516101a196959493929190612770565b60405180910390f35b3480156101b657600080fd5b506101d160048036036101cc91908101906125c3565b610996565b005b3480156101df57600080fd5b506101fa60048036036101f591908101906125c3565b610caa565b60405161020791906126be565b60405180910390f35b34801561021c57600080fd5b50610225610cbb565b60405161023291906127ff565b60405180910390f35b34801561024757600080fd5b50610262600480360361025d919081019061234d565b610d02565b005b34801561027057600080fd5b50610279611385565b60405161028691906127ff565b60405180910390f35b34801561029b57600080fd5b506102a461138e565b6040516102b191906126be565b60405180910390f35b3480156102c657600080fd5b506102e160048036036102dc91908101906124f0565b6113b8565b005b3480156102ef57600080fd5b5061030a60048036036103059190810190612435565b611611565b60405161031a949392919061271d565b60405180910390f35b34801561032f57600080fd5b5061034a600480360361034591908101906125c3565b611b8d565b005b34801561035857600080fd5b50610361611c39565b60405161036e9190612702565b60405180910390f35b60008260006004826040518082805190602001908083835b6020831015156103b4578051825260208201915060208101905060208303925061038f565b6001836020036101000a038019825116818451168082178552505050505050905001915050908152602001604051809103902080549050141515156103f857600080fd5b6004846040518082805190602001908083835b602083101515610430578051825260208201915060208101905060208303925061040b565b6001836020036101000a03801982511681845116808217855250505050505090500191505090815260200160405180910390208381548110151561047057fe5b9060005260206000200160009054906101000a900473ffffffffffffffffffffffffffffffffffffffff1691505092915050565b6000600760003373ffffffffffffffffffffffffffffffffffffffff1673ffffffffffffffffffffffffffffffffffffffff16815260200190815260200160002054905090565b6000600160009054906101000a900473ffffffffffffffffffffffffffffffffffffffff1673ffffffffffffffffffffffffffffffffffffffff1663901794656040518163ffffffff167c0100000000000000000000000000000000000000000000000000000000028152600401602060405180830381600087803b15801561057357600080fd5b505af1158015610587573d6000803e3d6000fd5b505050506040513d601f19601f820116820180604052506105ab91908101906125ec565b905090565b600060608060008060008060008060008b60006004826040518082805190602001908083835b6020831015156105fb57805182526020820191506020810190506020830392506105d6565b6001836020036101000a0380198251168184511680821785525050505050509050019150509081526020016040518091039020805490501415151561063f57600080fd5b7fffffffffffffffffffffffffffffffffffffffffffffffffffffffffffffffff9350600092505b60048d6040518082805190602001908083835b60208310151561069f578051825260208201915060208101905060208303925061067a565b6001836020036101000a03801982511681845116808217855250505050505090500191505090815260200160405180910390208054905083101561090a57600160009054906101000a900473ffffffffffffffffffffffffffffffffffffffff1673ffffffffffffffffffffffffffffffffffffffff166369a0301860048f6040518082805190602001908083835b602083101515610753578051825260208201915060208101905060208303925061072e565b6001836020036101000a03801982511681845116808217855250505050505090500191505090815260200160405180910390208581548110151561079357fe5b9060005260206000200160009054906101000a900473ffffffffffffffffffffffffffffffffffffffff16336040518363ffffffff167c01000000000000000000000000000000000000000000000000000000000281526004016107f89291906126d9565b602060405180830381600087803b15801561081257600080fd5b505af1158015610826573d6000803e3d6000fd5b505050506040513d601f19601f8201168201806040525061084a919081019061240c565b9150838213156108fd5781935060048d6040518082805190602001908083835b60208310151561088f578051825260208201915060208101905060208303925061086a565b6001836020036101000a0380198251168184511680821785525050505050509050019150509081526020016040518091039020838154811015156108cf57fe5b9060005260206000200160009054906101000a900473ffffffffffffffffffffffffffffffffffffffff1694505b8280600101935050610667565b7fffffffffffffffffffffffffffffffffffffffffffffffffffffffffffffffff841415151561096f576040517f08c379a0000000000000000000000000000000000000000000000000000000008152600401610966906127df565b60405180910390fd5b61097b8d8d8787611c80565b9a509a509a509a509a509a5050505050509295509295509295565b600080600760003373ffffffffffffffffffffffffffffffffffffffff1673ffffffffffffffffffffffffffffffffffffffff168152602001908152602001600020544203915062015180821115610a51577fdd15fe86affad91249ef0eb713f39ebeaa987b6e6fd2a0000000000000000000600860003373ffffffffffffffffffffffffffffffffffffffff1673ffffffffffffffffffffffffffffffffffffffff16815260200190815260200160002081905550610ae1565b6032600860003373ffffffffffffffffffffffffffffffffffffffff1673ffffffffffffffffffffffffffffffffffffffff16815260200190815260200160002054811515610a9c57fe5b04600860003373ffffffffffffffffffffffffffffffffffffffff1673ffffffffffffffffffffffffffffffffffffffff168152602001908152602001600020819055505b82600660003373ffffffffffffffffffffffffffffffffffffffff1673ffffffffffffffffffffffffffffffffffffffff168152602001908152602001600020546040518083815260200182600019166000191681526020019250505060405180910390209050600860003373ffffffffffffffffffffffffffffffffffffffff1673ffffffffffffffffffffffffffffffffffffffff1681526020019081526020016000205460010260001916816000191611151515610ba157600080fd5b42600760003373ffffffffffffffffffffffffffffffffffffffff1673ffffffffffffffffffffffffffffffffffffffff1681526020019081526020016000208190555082600660003373ffffffffffffffffffffffffffffffffffffffff1673ffffffffffffffffffffffffffffffffffffffff168152602001908152602001600020546001430340604051808481526020018360001916600019168152602001826000191660001916815260200193505050506040518091039020600660003373ffffffffffffffffffffffffffffffffffffffff1673ffffffffffffffffffffffffffffffffffffffff1681526020019081526020016000208160001916905550505050565b600081600081905550339050919050565b6000600860003373ffffffffffffffffffffffffffffffffffffffff1673ffffffffffffffffffffffffffffffffffffffff16815260200190815260200160002054905090565b6000806000600102876000191614151515610d1c57600080fd5b610d25866120ee565b151515610d3157600080fd5b610d3a856120ee565b151515610d4657600080fd5b610d4f846120ee565b151515610d5b57600080fd5b82610d67576001610d6a565b60005b915060007f0100000000000000000000000000000000000000000000000000000000000000026005856040518082805190602001908083835b602083101515610dc85780518252602082019150602081019050602083039250610da3565b6001836020036101000a038019825116818451168082178552505050505050905001915050908152602001604051809103902060003373ffffffffffffffffffffffffffffffffffffffff1673ffffffffffffffffffffffffffffffffffffffff1681526020019081526020016000206000600281101515610e4657fe5b60040201600001546000602081101515610e5c57fe5b1a7f0100000000000000000000000000000000000000000000000000000000000000027effffffffffffffffffffffffffffffffffffffffffffffffffffffffffffff1916148015610fe0575060007f0100000000000000000000000000000000000000000000000000000000000000026005856040518082805190602001908083835b602083101515610f055780518252602082019150602081019050602083039250610ee0565b6001836020036101000a038019825116818451168082178552505050505050905001915050908152602001604051809103902060003373ffffffffffffffffffffffffffffffffffffffff1673ffffffffffffffffffffffffffffffffffffffff1681526020019081526020016000206001600281101515610f8357fe5b60040201600001546000602081101515610f9957fe5b1a7f0100000000000000000000000000000000000000000000000000000000000000027effffffffffffffffffffffffffffffffffffffffffffffffffffffffffffff1916145b15611243576004846040518082805190602001908083835b60208310151561101d5780518252602082019150602081019050602083039250610ff8565b6001836020036101000a03801982511681845116808217855250505050505090500191505090815260200160405180910390208054905090506004846040518082805190602001908083835b60208310151561108e5780518252602082019150602081019050602083039250611069565b6001836020036101000a038019825116818451168082178552505050505050905001915050908152602001604051809103902080548091906001016110d39190612102565b50336004856040518082805190602001908083835b60208310151561110d57805182526020820191506020810190506020830392506110e8565b6001836020036101000a03801982511681845116808217855250505050505090500191505090815260200160405180910390208281548110151561114d57fe5b9060005260206000200160006101000a81548173ffffffffffffffffffffffffffffffffffffffff021916908373ffffffffffffffffffffffffffffffffffffffff160217905550806003856040518082805190602001908083835b6020831015156111ce57805182526020820191506020810190506020830392506111a9565b6001836020036101000a038019825116818451168082178552505050505050905001915050908152602001604051809103902060003373ffffffffffffffffffffffffffffffffffffffff1673ffffffffffffffffffffffffffffffffffffffff168152602001908152602001600020819055505b60806040519081016040528088600019168152602001878152602001868152602001438152506005856040518082805190602001908083835b6020831015156112a1578051825260208201915060208101905060208303925061127c565b6001836020036101000a038019825116818451168082178552505050505050905001915050908152602001604051809103902060003373ffffffffffffffffffffffffffffffffffffffff1673ffffffffffffffffffffffffffffffffffffffff1681526020019081526020016000208360ff1660028110151561132157fe5b6004020160008201518160000190600019169055602082015181600101908051906020019061135192919061212e565b50604082015181600201908051906020019061136e92919061212e565b506060820151816003015590505050505050505050565b60008054905090565b6000600260009054906101000a900473ffffffffffffffffffffffffffffffffffffffff16905090565b6000816113c65760016113c9565b60005b905061152b6005846040518082805190602001908083835b60208310151561140657805182526020820191506020810190506020830392506113e1565b6001836020036101000a038019825116818451168082178552505050505050905001915050908152602001604051809103902060003373ffffffffffffffffffffffffffffffffffffffff1673ffffffffffffffffffffffffffffffffffffffff1681526020019081526020016000208260ff1660028110151561148657fe5b600402016002018054600181600116156101000203166002900480601f0160208091040260200160405190810160405280929190818152602001828054600181600116156101000203166002900480156115215780601f106114f657610100808354040283529160200191611521565b820191906000526020600020905b81548152906001019060200180831161150457829003601f168201915b50505050506120ee565b15151561153757600080fd5b836005846040518082805190602001908083835b602083101515611570578051825260208201915060208101905060208303925061154b565b6001836020036101000a038019825116818451168082178552505050505050905001915050908152602001604051809103902060003373ffffffffffffffffffffffffffffffffffffffff1673ffffffffffffffffffffffffffffffffffffffff1681526020019081526020016000208260ff166002811015156115f057fe5b60040201600201908051906020019061160a9291906121ae565b5050505050565b600060608060008061162161222e565b8860006004826040518082805190602001908083835b60208310151561165c5780518252602082019150602081019050602083039250611637565b6001836020036101000a038019825116818451168082178552505050505050905001915050908152602001604051809103902080549050141515156116a057600080fd5b898960007f0100000000000000000000000000000000000000000000000000000000000000026005836040518082805190602001908083835b6020831015156116fe57805182526020820191506020810190506020830392506116d9565b6001836020036101000a038019825116818451168082178552505050505050905001915050908152602001604051809103902060008373ffffffffffffffffffffffffffffffffffffffff1673ffffffffffffffffffffffffffffffffffffffff168152602001908152602001600020600060028110151561177c57fe5b6004020160000154600060208110151561179257fe5b1a7f0100000000000000000000000000000000000000000000000000000000000000027effffffffffffffffffffffffffffffffffffffffffffffffffffffffffffff1916141580611917575060007f0100000000000000000000000000000000000000000000000000000000000000026005836040518082805190602001908083835b60208310151561183b5780518252602082019150602081019050602083039250611816565b6001836020036101000a038019825116818451168082178552505050505050905001915050908152602001604051809103902060008373ffffffffffffffffffffffffffffffffffffffff1673ffffffffffffffffffffffffffffffffffffffff16815260200190815260200160002060016002811015156118b957fe5b600402016000015460006020811015156118cf57fe5b1a7f0100000000000000000000000000000000000000000000000000000000000000027effffffffffffffffffffffffffffffffffffffffffffffffffffffffffffff191614155b151561192257600080fd5b8961192e576001611931565b60005b945060058c6040518082805190602001908083835b60208310151561196b5780518252602082019150602081019050602083039250611946565b6001836020036101000a038019825116818451168082178552505050505050905001915050908152602001604051809103902060008c73ffffffffffffffffffffffffffffffffffffffff1673ffffffffffffffffffffffffffffffffffffffff1681526020019081526020016000208560ff166002811015156119eb57fe5b6004020160806040519081016040529081600082015460001916600019168152602001600182018054600181600116156101000203166002900480601f016020809104026020016040519081016040528092919081815260200182805460018160011615610100020316600290048015611aa65780601f10611a7b57610100808354040283529160200191611aa6565b820191906000526020600020905b815481529060010190602001808311611a8957829003601f168201915b50505050508152602001600282018054600181600116156101000203166002900480601f016020809104026020016040519081016040528092919081815260200182805460018160011615610100020316600290048015611b485780601f10611b1d57610100808354040283529160200191611b48565b820191906000526020600020905b815481529060010190602001808311611b2b57829003601f168201915b50505050508152602001600382015481525050935083600001518460200151856040015186606001518292508191509850985098509850505050505093509350935093565b600160009054906101000a900473ffffffffffffffffffffffffffffffffffffffff1673ffffffffffffffffffffffffffffffffffffffff16636c6ec15a826040518263ffffffff167c0100000000000000000000000000000000000000000000000000000000028152600401611c0491906127ff565b600060405180830381600087803b158015611c1e57600080fd5b505af1158015611c32573d6000803e3d6000fd5b5050505050565b6000600660003373ffffffffffffffffffffffffffffffffffffffff1673ffffffffffffffffffffffffffffffffffffffff16815260200190815260200160002054905090565b600060608060008060008089611c97576001611c9a565b60005b905060058b6040518082805190602001908083835b602083101515611cd45780518252602082019150602081019050602083039250611caf565b6001836020036101000a038019825116818451168082178552505050505050905001915050908152602001604051809103902060008a73ffffffffffffffffffffffffffffffffffffffff1673ffffffffffffffffffffffffffffffffffffffff1681526020019081526020016000208160ff16600281101515611d5457fe5b600402016000015460058c6040518082805190602001908083835b602083101515611d945780518252602082019150602081019050602083039250611d6f565b6001836020036101000a038019825116818451168082178552505050505050905001915050908152602001604051809103902060008b73ffffffffffffffffffffffffffffffffffffffff1673ffffffffffffffffffffffffffffffffffffffff1681526020019081526020016000208260ff16600281101515611e1457fe5b6004020160010160058d6040518082805190602001908083835b602083101515611e535780518252602082019150602081019050602083039250611e2e565b6001836020036101000a038019825116818451168082178552505050505050905001915050908152602001604051809103902060008c73ffffffffffffffffffffffffffffffffffffffff1673ffffffffffffffffffffffffffffffffffffffff1681526020019081526020016000208360ff16600281101515611ed357fe5b6004020160020160058e6040518082805190602001908083835b602083101515611f125780518252602082019150602081019050602083039250611eed565b6001836020036101000a038019825116818451168082178552505050505050905001915050908152602001604051809103902060008d73ffffffffffffffffffffffffffffffffffffffff1673ffffffffffffffffffffffffffffffffffffffff1681526020019081526020016000208460ff16600281101515611f9257fe5b60040201600301548c8c848054600181600116156101000203166002900480601f0160208091040260200160405190810160405280929190818152602001828054600181600116156101000203166002900480156120315780601f1061200657610100808354040283529160200191612031565b820191906000526020600020905b81548152906001019060200180831161201457829003601f168201915b50505050509450838054600181600116156101000203166002900480601f0160208091040260200160405190810160405280929190818152602001828054600181600116156101000203166002900480156120cd5780601f106120a2576101008083540402835291602001916120cd565b820191906000526020600020905b8154815290600101906020018083116120b057829003601f168201915b50505050509350965096509650965096509650509499939850945094509450565b600060608290506000815114915050919050565b81548183558181111561212957818360005260206000209182019101612128919061225a565b5b505050565b828054600181600116156101000203166002900490600052602060002090601f016020900481019282601f1061216f57805160ff191683800117855561219d565b8280016001018555821561219d579182015b8281111561219c578251825591602001919060010190612181565b5b5090506121aa919061225a565b5090565b828054600181600116156101000203166002900490600052602060002090601f016020900481019282601f106121ef57805160ff191683800117855561221d565b8280016001018555821561221d579182015b8281111561221c578251825591602001919060010190612201565b5b50905061222a919061225a565b5090565b608060405190810160405280600080191681526020016060815260200160608152602001600081525090565b61227c91905b80821115612278576000816000905550600101612260565b5090565b90565b600061228b82356128bc565b905092915050565b600061229f82356128dc565b905092915050565b60006122b382356128e8565b905092915050565b60006122c782516128f2565b905092915050565b600082601f83011215156122e257600080fd5b81356122f56122f082612847565b61281a565b9150808252602083016020830185838301111561231157600080fd5b61231c838284612906565b50505092915050565b600061233182356128fc565b905092915050565b600061234582516128fc565b905092915050565b600080600080600060a0868803121561236557600080fd5b6000612373888289016122a7565b955050602086013567ffffffffffffffff81111561239057600080fd5b61239c888289016122cf565b945050604086013567ffffffffffffffff8111156123b957600080fd5b6123c5888289016122cf565b935050606086013567ffffffffffffffff8111156123e257600080fd5b6123ee888289016122cf565b92505060806123ff88828901612293565b9150509295509295909350565b60006020828403121561241e57600080fd5b600061242c848285016122bb565b91505092915050565b60008060006060848603121561244a57600080fd5b600084013567ffffffffffffffff81111561246457600080fd5b612470868287016122cf565b93505060206124818682870161227f565b925050604061249286828701612293565b9150509250925092565b600080604083850312156124af57600080fd5b600083013567ffffffffffffffff8111156124c957600080fd5b6124d5858286016122cf565b92505060206124e685828601612293565b9150509250929050565b60008060006060848603121561250557600080fd5b600084013567ffffffffffffffff81111561251f57600080fd5b61252b868287016122cf565b935050602084013567ffffffffffffffff81111561254857600080fd5b612554868287016122cf565b925050604061256586828701612293565b9150509250925092565b6000806040838503121561258257600080fd5b600083013567ffffffffffffffff81111561259c57600080fd5b6125a8858286016122cf565b92505060206125b985828601612325565b9150509250929050565b6000602082840312156125d557600080fd5b60006125e384828501612325565b91505092915050565b6000602082840312156125fe57600080fd5b600061260c84828501612339565b91505092915050565b61261e8161287e565b82525050565b61262d8161289e565b82525050565b61263c816128a8565b82525050565b600061264d82612873565b808452612661816020860160208601612915565b61266a81612948565b602085010191505092915050565b6000601d82527f4e6f207472757374656420646576656c6f70657220666f756e64203a280000006020830152604082019050919050565b6126b8816128b2565b82525050565b60006020820190506126d36000830184612615565b92915050565b60006040820190506126ee6000830185612615565b6126fb6020830184612615565b9392505050565b60006020820190506127176000830184612624565b92915050565b60006080820190506127326000830187612624565b81810360208301526127448186612642565b905081810360408301526127588185612642565b905061276760608301846126af565b95945050505050565b600060c0820190506127856000830189612624565b81810360208301526127978188612642565b905081810360408301526127ab8187612642565b90506127ba60608301866126af565b6127c76080830185612615565b6127d460a0830184612633565b979650505050505050565b600060208201905081810360008301526127f881612678565b9050919050565b600060208201905061281460008301846126af565b92915050565b6000604051905081810181811067ffffffffffffffff8211171561283d57600080fd5b8060405250919050565b600067ffffffffffffffff82111561285e57600080fd5b601f19601f8301169050602081019050919050565b600081519050919050565b600073ffffffffffffffffffffffffffffffffffffffff82169050919050565b6000819050919050565b6000819050919050565b6000819050919050565b600073ffffffffffffffffffffffffffffffffffffffff82169050919050565b60008115159050919050565b6000819050919050565b6000819050919050565b6000819050919050565b82818337600083830152505050565b60005b83811015612933578082015181840152602081019050612918565b83811115612942576000848401525b50505050565b6000601f19601f83011690509190505600a265627a7a72305820d05409af397830f4d0d5184c9c8d53ab4d8a3a35f33bb0723aa1e19be7b0f8106c6578706572696d656e74616cf500376080604052600160025534801561001557600080fd5b506113e5806100256000396000f300608060405260043610610083576000357c0100000000000000000000000000000000000000000000000000000000900463ffffffff1680630a4e09291461008857806369a03018146100cb5780636c6ec15a14610142578063901794651461016f578063be7ac8aa1461019a578063c04a2e24146101dd578063eb4d33d814610260575b600080fd5b34801561009457600080fd5b506100c9600480360381019080803573ffffffffffffffffffffffffffffffffffffffff1690602001909291905050506102d7565b005b3480156100d757600080fd5b5061012c600480360381019080803573ffffffffffffffffffffffffffffffffffffffff169060200190929190803573ffffffffffffffffffffffffffffffffffffffff16906020019092919050505061073d565b6040518082815260200191505060405180910390f35b34801561014e57600080fd5b5061016d60048036038101908080359060200190929190505050610791565b005b34801561017b57600080fd5b5061018461079b565b6040518082815260200191505060405180910390f35b3480156101a657600080fd5b506101db600480360381019080803573ffffffffffffffffffffffffffffffffffffffff1690602001909291905050506107a5565b005b3480156101e957600080fd5b5061021e600480360381019080803573ffffffffffffffffffffffffffffffffffffffff169060200190929190505050610a37565b604051808273ffffffffffffffffffffffffffffffffffffffff1673ffffffffffffffffffffffffffffffffffffffff16815260200191505060405180910390f35b34801561026c57600080fd5b506102c1600480360381019080803573ffffffffffffffffffffffffffffffffffffffff169060200190929190803573ffffffffffffffffffffffffffffffffffffffff169060200190929190505050610ab8565b6040518082815260200191505060405180910390f35b6000806000803373ffffffffffffffffffffffffffffffffffffffff1673ffffffffffffffffffffffffffffffffffffffff16815260200190815260200160002060008473ffffffffffffffffffffffffffffffffffffffff1673ffffffffffffffffffffffffffffffffffffffff16815260200190815260200160002060009054906101000a900460ff16151561036e57600080fd5b60008060003373ffffffffffffffffffffffffffffffffffffffff1673ffffffffffffffffffffffffffffffffffffffff16815260200190815260200160002060008573ffffffffffffffffffffffffffffffffffffffff1673ffffffffffffffffffffffffffffffffffffffff16815260200190815260200160002060006101000a81548160ff02191690831515021790555060009150600090505b60018060003373ffffffffffffffffffffffffffffffffffffffff1673ffffffffffffffffffffffffffffffffffffffff1681526020019081526020016000208054905003811015610628578273ffffffffffffffffffffffffffffffffffffffff16600160003373ffffffffffffffffffffffffffffffffffffffff1673ffffffffffffffffffffffffffffffffffffffff168152602001908152602001600020828154811015156104ba57fe5b9060005260206000200160009054906101000a900473ffffffffffffffffffffffffffffffffffffffff1673ffffffffffffffffffffffffffffffffffffffff16141561050657600191505b811561061b57600160003373ffffffffffffffffffffffffffffffffffffffff1673ffffffffffffffffffffffffffffffffffffffff1681526020019081526020016000206001820181548110151561055b57fe5b9060005260206000200160009054906101000a900473ffffffffffffffffffffffffffffffffffffffff16600160003373ffffffffffffffffffffffffffffffffffffffff1673ffffffffffffffffffffffffffffffffffffffff168152602001908152602001600020828154811015156105d257fe5b9060005260206000200160006101000a81548173ffffffffffffffffffffffffffffffffffffffff021916908373ffffffffffffffffffffffffffffffffffffffff1602179055505b808060010191505061040b565b600160003373ffffffffffffffffffffffffffffffffffffffff1673ffffffffffffffffffffffffffffffffffffffff16815260200190815260200160002060018060003373ffffffffffffffffffffffffffffffffffffffff1673ffffffffffffffffffffffffffffffffffffffff16815260200190815260200160002080549050038154811015156106b857fe5b9060005260206000200160006101000a81549073ffffffffffffffffffffffffffffffffffffffff0219169055600160003373ffffffffffffffffffffffffffffffffffffffff1673ffffffffffffffffffffffffffffffffffffffff168152602001908152602001600020805480919060019003610737919061133c565b50505050565b60008060008061074e858785611085565b8093508192505050811561076457809350610788565b7fffffffffffffffffffffffffffffffffffffffffffffffffffffffffffffffff93505b50505092915050565b8060028190555050565b6000600254905090565b6000803373ffffffffffffffffffffffffffffffffffffffff1673ffffffffffffffffffffffffffffffffffffffff16815260200190815260200160002060008273ffffffffffffffffffffffffffffffffffffffff1673ffffffffffffffffffffffffffffffffffffffff16815260200190815260200160002060009054906101000a900460ff1615151561083a57600080fd5b8073ffffffffffffffffffffffffffffffffffffffff163373ffffffffffffffffffffffffffffffffffffffff161415151561087557600080fd5b60016000803373ffffffffffffffffffffffffffffffffffffffff1673ffffffffffffffffffffffffffffffffffffffff16815260200190815260200160002060008373ffffffffffffffffffffffffffffffffffffffff1673ffffffffffffffffffffffffffffffffffffffff16815260200190815260200160002060006101000a81548160ff021916908315150217905550600160003373ffffffffffffffffffffffffffffffffffffffff1673ffffffffffffffffffffffffffffffffffffffff168152602001908152602001600020805480919060010161095a919061133c565b5080600160003373ffffffffffffffffffffffffffffffffffffffff1673ffffffffffffffffffffffffffffffffffffffff16815260200190815260200160002060018060003373ffffffffffffffffffffffffffffffffffffffff1673ffffffffffffffffffffffffffffffffffffffff16815260200190815260200160002080549050038154811015156109ec57fe5b9060005260206000200160006101000a81548173ffffffffffffffffffffffffffffffffffffffff021916908373ffffffffffffffffffffffffffffffffffffffff16021790555050565b6000600160008373ffffffffffffffffffffffffffffffffffffffff1673ffffffffffffffffffffffffffffffffffffffff1681526020019081526020016000206000815481101515610a8657fe5b9060005260206000200160009054906101000a900473ffffffffffffffffffffffffffffffffffffffff169050919050565b60008060008060008060008060018760000160008c73ffffffffffffffffffffffffffffffffffffffff1673ffffffffffffffffffffffffffffffffffffffff16815260200190815260200160002060006101000a81548160ff021916908315150217905550858054809190600101610b319190611368565b5088866001888054905003815481101515610b4857fe5b9060005260206000200160006101000a81548173ffffffffffffffffffffffffffffffffffffffff021916908373ffffffffffffffffffffffffffffffffffffffff1602179055506001945060009350600092505b841561107457856001878054905003815481101515610bb857fe5b9060005260206000200160009054906101000a900473ffffffffffffffffffffffffffffffffffffffff16915085805480919060019003610bf99190611368565b506000808373ffffffffffffffffffffffffffffffffffffffff1673ffffffffffffffffffffffffffffffffffffffff16815260200190815260200160002060008b73ffffffffffffffffffffffffffffffffffffffff1673ffffffffffffffffffffffffffffffffffffffff16815260200190815260200160002060009054906101000a900460ff1615610c9357600184019350600094505b600090505b600160008373ffffffffffffffffffffffffffffffffffffffff1673ffffffffffffffffffffffffffffffffffffffff16815260200190815260200160002080549050811015611031578973ffffffffffffffffffffffffffffffffffffffff16600160008473ffffffffffffffffffffffffffffffffffffffff1673ffffffffffffffffffffffffffffffffffffffff16815260200190815260200160002082815481101515610d4557fe5b9060005260206000200160009054906101000a900473ffffffffffffffffffffffffffffffffffffffff1673ffffffffffffffffffffffffffffffffffffffff161415610d9157600094505b848015610e605750866000016000600160008573ffffffffffffffffffffffffffffffffffffffff1673ffffffffffffffffffffffffffffffffffffffff16815260200190815260200160002083815481101515610deb57fe5b9060005260206000200160009054906101000a900473ffffffffffffffffffffffffffffffffffffffff1673ffffffffffffffffffffffffffffffffffffffff1673ffffffffffffffffffffffffffffffffffffffff16815260200190815260200160002060009054906101000a900460ff16155b15611024576001876000016000600160008673ffffffffffffffffffffffffffffffffffffffff1673ffffffffffffffffffffffffffffffffffffffff16815260200190815260200160002084815481101515610eb957fe5b9060005260206000200160009054906101000a900473ffffffffffffffffffffffffffffffffffffffff1673ffffffffffffffffffffffffffffffffffffffff1673ffffffffffffffffffffffffffffffffffffffff16815260200190815260200160002060006101000a81548160ff021916908315150217905550858054809190600101610f489190611368565b50600160008373ffffffffffffffffffffffffffffffffffffffff1673ffffffffffffffffffffffffffffffffffffffff16815260200190815260200160002081815481101515610f9557fe5b9060005260206000200160009054906101000a900473ffffffffffffffffffffffffffffffffffffffff16866001888054905003815481101515610fd557fe5b9060005260206000200160006101000a81548173ffffffffffffffffffffffffffffffffffffffff021916908373ffffffffffffffffffffffffffffffffffffffff1602179055506001840193505b8080600101915050610c98565b848015611042575085805490506000145b1561106f577fffffffffffffffffffffffffffffffffffffffffffffffffffffffffffffffff9750611078565b610b9d565b8397505b5050505050505092915050565b60008060008060008060008060018960000160008d73ffffffffffffffffffffffffffffffffffffffff1673ffffffffffffffffffffffffffffffffffffffff16815260200190815260200160002060006101000a81548160ff0219169083151502179055508973ffffffffffffffffffffffffffffffffffffffff168b73ffffffffffffffffffffffffffffffffffffffff16141561112f57600060018191509750975061132e565b6000808c73ffffffffffffffffffffffffffffffffffffffff1673ffffffffffffffffffffffffffffffffffffffff16815260200190815260200160002060008b73ffffffffffffffffffffffffffffffffffffffff1673ffffffffffffffffffffffffffffffffffffffff16815260200190815260200160002060009054906101000a900460ff16156111cc576001808191509750975061132e565b60009550600a9450600093505b600160008c73ffffffffffffffffffffffffffffffffffffffff1673ffffffffffffffffffffffffffffffffffffffff168152602001908152602001600020805490508410156113275760019250600160008c73ffffffffffffffffffffffffffffffffffffffff1673ffffffffffffffffffffffffffffffffffffffff1681526020019081526020016000208481548110151561127357fe5b9060005260206000200160009054906101000a900473ffffffffffffffffffffffffffffffffffffffff1691508860000160008373ffffffffffffffffffffffffffffffffffffffff1673ffffffffffffffffffffffffffffffffffffffff16815260200190815260200160002060009054906101000a900460ff16151561130e57611300828b8b611085565b809750819250505080830192505b8483121561131a578294505b83806001019450506111d9565b8486975097505b505050505050935093915050565b815481835581811115611363578183600052602060002091820191016113629190611394565b5b505050565b81548183558181111561138f5781836000526020600020918201910161138e9190611394565b5b505050565b6113b691905b808211156113b257600081600090555060010161139a565b5090565b905600a165627a7a72305820731241c7eaab67a8c5cca159698f309d89f1ccd164f0a51008bb0febbf1b17050029",
  "source": "\r\npragma solidity ^0.4.23;\r\npragma experimental ABIEncoderV2;\r\n\r\nimport \"./webTrust.sol\";\r\nimport \"./PQ.sol\";\r\n\r\ncontract FirmwareRepo{\r\n\r\n    // Firmware struct\r\n    struct Firmware {\r\n        // address developer;\r\n        bytes32 firmware_hash;\r\n        string IPFS_link;\r\n        string description;\r\n        uint256 block_number;\r\n        // string device_type;\r\n    }\r\n    // Firmware Infor struct\r\n    struct Firmware_Info {\r\n        Firmware fw;\r\n        address developer;\r\n        int256 trust;\r\n    }\r\n    uint256 cv = 1;\r\n    Web_Of_Trust web_trust;\r\n    address web_trust_addr;\r\n\r\n    mapping(string => mapping(address=>uint256)) device_developer_index;\r\n    \r\n    mapping(string => address[]) device_developers;\r\n    \r\n    // Each developer is allowed to have a stable version and a experimental version. Critical Assumption\r\n    mapping(string => mapping(address => Firmware[2])) developed_firmware;\r\n\r\n\r\n    // Modifiers\r\n    // There exists firmware for the target device\r\n    modifier hasFirmware(string device_type) {\r\n        require(device_developers[device_type].length != 0);\r\n        _; \r\n    }\r\n    // The requested developer exists\r\n    modifier isValidDeveloper(string device_type, address developer) {\r\n        require(developed_firmware[device_type][developer][0].firmware_hash[0] != 0 ||\r\n            developed_firmware[device_type][developer][1].firmware_hash[0] != 0);\r\n        _; \r\n    }\r\n\r\n    constructor() public {\r\n        web_trust_addr = new Web_Of_Trust();\r\n        web_trust = Web_Of_Trust(web_trust_addr);\r\n        cv = 2;\r\n    }\r\n\r\n    /* Generic Interface (Setters/Getters) *\r\n    ************************************/\r\n    // Get Web of Trust Contract Address\r\n    function trust_address() public view returns (address) {\r\n        return web_trust_addr;\r\n    }\r\n\r\n\r\n    mapping(address => bytes32) current_challenge;\r\n    mapping(address => uint) timeOfLastProof;\r\n    mapping(address => uint) difficulty;\r\n    function get_d() public view returns(uint) {return difficulty[msg.sender];}\r\n    function get_t() public view returns(uint) {return timeOfLastProof[msg.sender];}\r\n    function get_c() public view returns(bytes32) {return current_challenge[msg.sender];}\r\n\r\n    function proofOfWork(uint nonce) public {\r\n        \r\n        // Calculate the difficulty\r\n        uint timeSinceLastProof = (now - timeOfLastProof[msg.sender]);\r\n        if (timeSinceLastProof > 1 days){\r\n            // Reset Difficulty\r\n            difficulty[msg.sender] = 10**77;\r\n        } else{\r\n            // Exponentiate Difficulty\r\n            difficulty[msg.sender] = difficulty[msg.sender]/50;\r\n        }\r\n        bytes32 n = keccak256(nonce, current_challenge[msg.sender]);    // Generate a random hash based on input\r\n        require(n <= bytes32(difficulty[msg.sender]));                 // Check if it's under the difficulty\r\n\r\n\r\n        timeOfLastProof[msg.sender] = now;\r\n        current_challenge[msg.sender] = keccak256(nonce,\r\n                                                  current_challenge[msg.sender],\r\n                                                  block.blockhash(block.number - 1));  // Save a hash that will be used as the next proof\r\n    }\r\n\r\n\r\n\r\n\r\n    /** Interface Target for Developers *\r\n    ************************************/\r\n\r\n    /**\r\n        * @dev Called by developers to add a new firmware to the contract.\r\n        * @param firmware_hash_ Hash of the firmware using SHA-3\r\n        * @param IPFS_link_ IPFS link to download the firmware\r\n        * @param description_  Firmware description\r\n        * @param device_type_  Device Type (E.g. Raspberry pi)\r\n        * @param stable       Firmware type: LTS or Latest Version\r\n    */\r\n    function add_firmware(bytes32 firmware_hash_, string IPFS_link_,\r\n        string description_, string device_type_, bool stable) public {\r\n        require(firmware_hash_ != 0);\r\n        require(!is_empty(IPFS_link_));\r\n        require(!is_empty(description_));\r\n        require(!is_empty(device_type_));\r\n        uint8 firmware_index = (stable) ? 0 : 1;\r\n        // If I have no firmware from that dev, then add him to the list\r\n        if (developed_firmware[device_type_][msg.sender][0].firmware_hash[0] == 0 &&\r\n            developed_firmware[device_type_][msg.sender][1].firmware_hash[0] == 0 ){\r\n            uint256 prv_length = device_developers[device_type_].length;\r\n            device_developers[device_type_].length++;\r\n            device_developers[device_type_][prv_length] = msg.sender;\r\n            device_developer_index[device_type_][msg.sender] = prv_length;\r\n        }\r\n        developed_firmware[device_type_][msg.sender][firmware_index] = \r\n            Firmware(firmware_hash_,IPFS_link_,description_,block.number);  \r\n    }\r\n\r\n    /**\r\n        * @dev Called by developers to edit the description of an existing firmware.\r\n        * @param description_ New firmware description\r\n        * @param device_type  Device Type (E.g. Raspberry pi)\r\n        * @param stable       Firmware type: LTS or Latest Version\r\n    */\r\n\r\n    function edit_description(string description_, string device_type, bool stable) public {\r\n        //TODO: Add proper require()\r\n        uint8 firmware_index = (stable) ? 0 : 1;\r\n        require(!is_empty(developed_firmware[device_type][msg.sender][firmware_index].description));\r\n        developed_firmware[device_type][msg.sender][firmware_index].description = description_;\r\n    }\r\n\r\n    // /** Interface Target for Nodes *\r\n    // ************************************/\r\n\r\n      /**\r\n        * @dev Called by nodes to get a specific firmware.\r\n        * @param device_type  Device Type (E.g. Raspberry pi)\r\n        * @param mf_address   Firmware Developer PK\r\n        * @param stable       Firmware type: LTS or Latest Version\r\n    */\r\n    function get_firmware(string device_type, address mf_address, bool stable)\r\n              hasFirmware(device_type)\r\n              isValidDeveloper(device_type,mf_address)\r\n             public view returns (bytes32, string, string, uint256){\r\n        uint8 firmware_index = (stable) ? 0 : 1;\r\n        Firmware memory fw = developed_firmware[device_type][mf_address][firmware_index];\r\n        return (fw.firmware_hash, fw.IPFS_link, fw.description, fw.block_number);\r\n    }\r\n\r\n    function get_developer(string device_type, uint256 i)\r\n             hasFirmware(device_type)\r\n             public view returns (address) {\r\n        return device_developers[device_type][i];\r\n    }\r\n\r\n      /**\r\n        * @dev Called by nodes to get a firmware from the most trusted developer.\r\n        * @param device_type  Device Type (E.g. Raspberry pi)\r\n        * @param stable       Firmware type: LTS or Latest Version\r\n    */\r\n    function get_most_trusted_firmware(string device_type, bool stable) hasFirmware(device_type)\r\n             public view returns (bytes32, string, string, uint256,address,int256) {\r\n        address most_trusted_dev;\r\n        int256  max_trust = -1;\r\n        for (uint256 i = 0; i < device_developers[device_type].length; i++ ){\r\n                                                        // Target                        ,Origin\r\n            int256 curr_trust = web_trust.hop_to_target(device_developers[device_type][i], msg.sender);\r\n            if (curr_trust > max_trust){\r\n                max_trust = curr_trust;\r\n                most_trusted_dev = device_developers[device_type][i];\r\n            }\r\n        }\r\n        // Require to trust the developer\r\n        require(max_trust != -1, \"No trusted developer found :(\");\r\n        return fw_info_to_tuple(device_type,stable,most_trusted_dev,max_trust);\r\n    }\r\n    // /**\r\n    //     * @dev Called by nodes to get a firmware from the 7 most trusted developers.\r\n    //     * @param device_type  Device Type (E.g. Raspberry pi)\r\n    //     * @param stable       Firmware type: LTS or Latest Version\r\n    //       Requires transaction\r\n    // */  \r\n    // function get_top_firmwares(string device_type, bool stable)\r\n    //     public returns (Firmware_Info[7]){\r\n    //     uint8 firmware_index = (stable) ? 0 : 1;\r\n    //     //address pq_address = new PQ();\r\n    //     PQ pq;//= PQ(pq_address);\r\n    //     for (uint256 i = 0; i < device_developers[device_type].length; i++ ){\r\n    //         int256 curr_trust = web_trust.hop_to_target(device_developers[device_type][i]);\r\n    //         pq.insert(curr_trust,device_developers[device_type][i]);\r\n    //     }\r\n    //     Firmware_Info[7] firmware_list;\r\n    //     for (uint8 k = 0;  i < 7; i++){\r\n    //         PQ.Node memory tmp = pq.get_specific_node(k);\r\n    //         firmware_list[i] = Firmware_Info(developed_firmware[device_type][tmp.value][firmware_index],tmp.value,tmp.key);\r\n    //     }\r\n    //     return firmware_list;\r\n    // }\r\n\r\n    function fw_info_to_tuple(string device_type, bool stable, address most_trusted_dev, int256 trust)\r\n        internal view  returns (bytes32, string, string, uint256, address, int256) {\r\n        uint8 firmware_index = (stable) ? 0 : 1;\r\n        return (developed_firmware[device_type][most_trusted_dev][firmware_index].firmware_hash,\r\n            developed_firmware[device_type][most_trusted_dev][firmware_index].IPFS_link, \r\n            developed_firmware[device_type][most_trusted_dev][firmware_index].description,\r\n            developed_firmware[device_type][most_trusted_dev][firmware_index].block_number,\r\n            most_trusted_dev,\r\n            trust);\r\n    }\r\n\r\n    /**\r\n        * @dev Called internally to check if a string is empty\r\n        * @param str  String to check\r\n    */\r\n    function is_empty(string str) internal pure returns (bool) {\r\n        // Source: https://ethereum.stackexchange.com/questions/11039/how-can-you-check-if-a-string-is-empty-in-solidity\r\n        bytes memory tempEmptyStringTest = bytes(str); // Uses memory\r\n        return (tempEmptyStringTest.length == 0);\r\n    }\r\n\r\n\r\n    // Priority Q //\r\n    struct Node {\r\n        int256 key;\r\n        address value;\r\n    }    \r\n\r\n\r\n    //====== Debug Functions & Debug State ======//\r\n\r\n    function set_version(uint256 v) public returns (address) {\r\n        cv = v;\r\n        return msg.sender;\r\n    }\r\n\r\n    function get_version() public view returns (uint256) {\r\n        return cv;\r\n    }\r\n\r\n    function set_trust_version(uint256 v) public {\r\n        web_trust.set_version(v);   \r\n    }\r\n\r\n    function get_trust_version() public view returns (uint256){\r\n        return web_trust.get_version();\r\n    }\r\n    //===================================//\r\n}",
  "sourcePath": "C:/Users/Bc/Documents/GitHub/buidl/Codigo-Network/contracts/firmware_repo.sol",
  "compiler": {
    "name": "solc",
    "version": "0.4.26+commit.4563c3fc.Emscripten.clang"
  },
  "schemaVersion": "3.0.21",
  "updatedAt": "2020-07-15T15:05:08.752Z",
  "devdoc": {
    "methods": {
      "add_firmware(bytes32,string,string,string,bool)": {
        "details": "Called by developers to add a new firmware to the contract.\r",
        "params": {
          "IPFS_link_": "IPFS link to download the firmware\r",
          "description_": "Firmware description\r",
          "device_type_": "Device Type (E.g. Raspberry pi)\r",
          "firmware_hash_": "Hash of the firmware using SHA-3\r",
          "stable": "Firmware type: LTS or Latest Version\r"
        }
      },
      "edit_description(string,string,bool)": {
        "details": "Called by developers to edit the description of an existing firmware.\r",
        "params": {
          "description_": "New firmware description\r",
          "device_type": "Device Type (E.g. Raspberry pi)\r",
          "stable": "Firmware type: LTS or Latest Version\r"
        }
      },
      "get_firmware(string,address,bool)": {
        "details": "Called by nodes to get a specific firmware.\r",
        "params": {
          "device_type": "Device Type (E.g. Raspberry pi)\r",
          "mf_address": "Firmware Developer PK\r",
          "stable": "Firmware type: LTS or Latest Version\r"
        }
      },
      "get_most_trusted_firmware(string,bool)": {
        "details": "Called by nodes to get a firmware from the most trusted developer.\r",
        "params": {
          "device_type": "Device Type (E.g. Raspberry pi)\r",
          "stable": "Firmware type: LTS or Latest Version\r"
        }
      }
    }
  },
  "userdoc": {
    "methods": {}
  }
}