{
  "contractName": "PQ",
  "abi": [
    {
      "constant": false,
      "inputs": [
        {
          "name": "key",
          "type": "int256"
        },
        {
          "name": "addr",
          "type": "address"
        }
      ],
      "name": "insert",
      "outputs": [],
      "payable": false,
      "stateMutability": "nonpayable",
      "type": "function"
    },
    {
      "constant": true,
      "inputs": [
        {
          "name": "i",
          "type": "uint8"
        }
      ],
      "name": "get_specific_key",
      "outputs": [
        {
          "name": "",
          "type": "int256"
        }
      ],
      "payable": false,
      "stateMutability": "view",
      "type": "function"
    },
    {
      "constant": true,
      "inputs": [
        {
          "name": "i",
          "type": "uint8"
        }
      ],
      "name": "get_specific_node",
      "outputs": [
        {
          "components": [
            {
              "name": "key",
              "type": "int256"
            },
            {
              "name": "value",
              "type": "address"
            }
          ],
          "name": "",
          "type": "tuple"
        }
      ],
      "payable": false,
      "stateMutability": "view",
      "type": "function"
    },
    {
      "constant": true,
      "inputs": [],
      "name": "get_min_node",
      "outputs": [
        {
          "components": [
            {
              "name": "key",
              "type": "int256"
            },
            {
              "name": "value",
              "type": "address"
            }
          ],
          "name": "",
          "type": "tuple"
        }
      ],
      "payable": false,
      "stateMutability": "view",
      "type": "function"
    },
    {
      "constant": true,
      "inputs": [],
      "name": "get_min_key",
      "outputs": [
        {
          "name": "",
          "type": "int256"
        }
      ],
      "payable": false,
      "stateMutability": "view",
      "type": "function"
    }
  ],
  "bytecode": "0x60806040526000600e60006101000a81548160ff021916908360ff16021790555034801561002c57600080fd5b506109658061003c6000396000f30060806040526004361061006d576000357c0100000000000000000000000000000000000000000000000000000000900463ffffffff1680631560c99b146100725780631cba6f651461009d578063781fb716146100da57806392f58e9e14610117578063bf45fa2614610142575b600080fd5b34801561007e57600080fd5b5061008761016b565b60405161009491906108af565b60405180910390f35b3480156100a957600080fd5b506100c460048036036100bf919081019061081e565b6101f6565b6040516100d191906108af565b60405180910390f35b3480156100e657600080fd5b5061010160048036036100fc919081019061081e565b610299565b60405161010e9190610894565b60405180910390f35b34801561012357600080fd5b5061012c6102cf565b6040516101399190610894565b60405180910390f35b34801561014e57600080fd5b50610169600480360361016491908101906107e2565b6102ed565b005b610173610776565b60008060078110151561018257fe5b60020201604080519081016040529081600082015481526020016001820160009054906101000a900473ffffffffffffffffffffffffffffffffffffffff1673ffffffffffffffffffffffffffffffffffffffff1673ffffffffffffffffffffffffffffffffffffffff1681525050905090565b6101fe610776565b60068260ff161115151561021157600080fd5b60008260ff1660078110151561022357fe5b60020201604080519081016040529081600082015481526020016001820160009054906101000a900473ffffffffffffffffffffffffffffffffffffffff1673ffffffffffffffffffffffffffffffffffffffff1673ffffffffffffffffffffffffffffffffffffffff16815250509050919050565b600060068260ff16111515156102ae57600080fd5b60008260ff166007811015156102c057fe5b60020201600001549050919050565b60008060006007811015156102e057fe5b6002020160000154905090565b6000806007600e60009054906101000a900460ff1660ff161415610332576103158484610423565b8093508192505050801561032d5761032c8261054d565b5b61041d565b60408051908101604052808581526020018473ffffffffffffffffffffffffffffffffffffffff168152506000600e60009054906101000a900460ff1660ff1660078110151561037e57fe5b600202016000820151816000015560208201518160010160006101000a81548173ffffffffffffffffffffffffffffffffffffffff021916908373ffffffffffffffffffffffffffffffffffffffff1602179055509050506103ee600e60009054906101000a900460ff1661054d565b6001600e60008282829054906101000a900460ff160192506101000a81548160ff021916908360ff1602179055505b50505050565b6000806000806000600892507ffffffffffffffffffffffffffffffffffffffffffffffffffffffffffffffff69150600390505b60078160ff1610156104b1578160008260ff1660078110151561047657fe5b600202016000015413156104a45780925060008160ff1660078110151561049957fe5b600202016000015491505b8080600101915050610457565b8187121561053b578660008460ff166007811015156104cc57fe5b60020201600001819055508560008460ff166007811015156104ea57fe5b6002020160010160006101000a81548173ffffffffffffffffffffffffffffffffffffffff021916908373ffffffffffffffffffffffffffffffffffffffff16021790555060018394509450610543565b600083945094505b5050509250929050565b60008060008360ff161415610561576105d6565b82915060028260ff1681151561057357fe5b0490505b60008160ff1660078110151561058957fe5b600202016000015460008360ff166007811015156105a357fe5b600202016000015412156105d5576105bb82826105db565b80915060028260ff168115156105cd57fe5b049050610577565b5b505050565b6105e3610776565b60008360ff166007811015156105f557fe5b60020201604080519081016040529081600082015481526020016001820160009054906101000a900473ffffffffffffffffffffffffffffffffffffffff1673ffffffffffffffffffffffffffffffffffffffff1673ffffffffffffffffffffffffffffffffffffffff1681525050905060008260ff1660078110151561067857fe5b6002020160008460ff1660078110151561068e57fe5b60020201600082015481600001556001820160009054906101000a900473ffffffffffffffffffffffffffffffffffffffff168160010160006101000a81548173ffffffffffffffffffffffffffffffffffffffff021916908373ffffffffffffffffffffffffffffffffffffffff1602179055509050508060008360ff1660078110151561071957fe5b600202016000820151816000015560208201518160010160006101000a81548173ffffffffffffffffffffffffffffffffffffffff021916908373ffffffffffffffffffffffffffffffffffffffff160217905550905050505050565b604080519081016040528060008152602001600073ffffffffffffffffffffffffffffffffffffffff1681525090565b60006107b282356108f4565b905092915050565b60006107c68235610914565b905092915050565b60006107da823561091e565b905092915050565b600080604083850312156107f557600080fd5b6000610803858286016107ba565b9250506020610814858286016107a6565b9150509250929050565b60006020828403121561083057600080fd5b600061083e848285016107ce565b91505092915050565b610850816108ca565b82525050565b61085f816108ea565b82525050565b60408201600082015161087b6000850182610856565b50602082015161088e6020850182610847565b50505050565b60006020820190506108a96000830184610856565b92915050565b60006040820190506108c46000830184610865565b92915050565b600073ffffffffffffffffffffffffffffffffffffffff82169050919050565b6000819050919050565b600073ffffffffffffffffffffffffffffffffffffffff82169050919050565b6000819050919050565b600060ff821690509190505600a265627a7a72305820e51982d12a0e01b1d74986d7c8250bd0050db35220653a8e2224452e7716ccf06c6578706572696d656e74616cf50037",
  "source": "pragma solidity ^0.4.23;\r\npragma experimental ABIEncoderV2;\r\n\r\ncontract PQ {\r\n\r\n    struct Node {\r\n        int256 key;\r\n        address value;\r\n    }    \r\n    /* \r\n     *  Storage\r\n     */\r\n    Node[7] private heapKeyValue;\r\n    uint8 private current_size = 0;\r\n    function insert(int256 key, address addr) public {\r\n\r\n        if (current_size == 7) {\r\n            uint8 indx;\r\n            bool inserted;\r\n            (inserted,indx) = find_replace_max(key,addr);\r\n            if (inserted)\r\n                heapify(indx);\r\n        } else {\r\n            heapKeyValue[current_size] = Node(key,addr);\r\n            heapify(current_size);\r\n            current_size += 1;\r\n        }\r\n    }\r\n\r\n    function get_specific_key(uint8 i) public view returns (int256){\r\n        require(i<=6);\r\n        return heapKeyValue[i].key;\r\n    }\r\n\r\n    function get_specific_node(uint8 i) public view returns (Node){\r\n        require(i<=6);\r\n        return heapKeyValue[i];\r\n    }\r\n\r\n    function get_min_node() public view returns (Node) {\r\n        return heapKeyValue[0];\r\n    }\r\n\r\n    function get_min_key() public view returns (int256){\r\n        return heapKeyValue[0].key;\r\n    }\r\n\r\n    function heapify(uint8 idx) internal {\r\n        if (idx == 0) return;\r\n        uint8 curr_idx = idx;\r\n        uint8 par_idx = curr_idx/2;\r\n        while (heapKeyValue[curr_idx].key < heapKeyValue[par_idx].key ) {\r\n            swap_values(curr_idx,par_idx);\r\n            curr_idx = par_idx;\r\n            par_idx = curr_idx/2; \r\n        }\r\n    }\r\n\r\n    function find_replace_max(int256 target_key, address addr) internal returns (bool,uint8) {\r\n        uint8 max_pos = 8;\r\n        int256 max_value = -10;\r\n        for (uint8 i = 3; i < 7; i++){\r\n            if (heapKeyValue[i].key > max_value){\r\n                max_pos = i;\r\n                max_value = heapKeyValue[i].key;\r\n            }\r\n        }\r\n        if (target_key < max_value) {\r\n            heapKeyValue[max_pos].key = target_key;\r\n            heapKeyValue[max_pos].value = addr;\r\n            return (true,max_pos);\r\n        }\r\n        return (false,max_pos);\r\n    }\r\n\r\n    function swap_values(uint8 lhs, uint8 rhs) internal {\r\n        Node memory tmp = heapKeyValue[lhs];\r\n        heapKeyValue[lhs] = heapKeyValue[rhs];\r\n        heapKeyValue[rhs] = tmp;\r\n    }\r\n\r\n}",
  "sourcePath": "C:\\Users\\Bc\\Documents\\GitHub\\buidl\\Codigo-Network\\contracts\\PQ.sol",
  "compiler": {
    "name": "solc",
    "version": "0.4.26+commit.4563c3fc.Emscripten.clang"
  },
  "schemaVersion": "3.0.21",
  "updatedAt": "2020-07-15T15:11:17.187Z",
  "devdoc": {
    "methods": {}
  },
  "userdoc": {
    "methods": {}
  }
}