{
  "contractName": "SCPKI",
  "abi": [
    {
      "constant": true,
      "inputs": [
        {
          "name": "",
          "type": "uint256"
        }
      ],
      "name": "signatures",
      "outputs": [
        {
          "name": "signer",
          "type": "address"
        },
        {
          "name": "attributeID",
          "type": "uint256"
        },
        {
          "name": "expiry",
          "type": "uint256"
        }
      ],
      "payable": false,
      "stateMutability": "view",
      "type": "function"
    },
    {
      "constant": true,
      "inputs": [
        {
          "name": "",
          "type": "uint256"
        }
      ],
      "name": "attributes",
      "outputs": [
        {
          "name": "owner",
          "type": "address"
        },
        {
          "name": "attributeType",
          "type": "string"
        },
        {
          "name": "has_proof",
          "type": "bool"
        },
        {
          "name": "identifier",
          "type": "bytes32"
        },
        {
          "name": "data",
          "type": "string"
        },
        {
          "name": "datahash",
          "type": "string"
        }
      ],
      "payable": false,
      "stateMutability": "view",
      "type": "function"
    },
    {
      "constant": true,
      "inputs": [
        {
          "name": "",
          "type": "uint256"
        }
      ],
      "name": "revocations",
      "outputs": [
        {
          "name": "signatureID",
          "type": "uint256"
        }
      ],
      "payable": false,
      "stateMutability": "view",
      "type": "function"
    },
    {
      "anonymous": false,
      "inputs": [
        {
          "indexed": true,
          "name": "attributeID",
          "type": "uint256"
        },
        {
          "indexed": true,
          "name": "owner",
          "type": "address"
        },
        {
          "indexed": false,
          "name": "attributeType",
          "type": "string"
        },
        {
          "indexed": false,
          "name": "has_proof",
          "type": "bool"
        },
        {
          "indexed": false,
          "name": "indexedidentifier",
          "type": "bytes32"
        },
        {
          "indexed": false,
          "name": "data",
          "type": "string"
        },
        {
          "indexed": false,
          "name": "datahash",
          "type": "string"
        }
      ],
      "name": "AttributeAdded",
      "type": "event"
    },
    {
      "anonymous": false,
      "inputs": [
        {
          "indexed": true,
          "name": "signatureID",
          "type": "uint256"
        },
        {
          "indexed": true,
          "name": "signer",
          "type": "address"
        },
        {
          "indexed": true,
          "name": "attributeID",
          "type": "uint256"
        },
        {
          "indexed": false,
          "name": "expiry",
          "type": "uint256"
        }
      ],
      "name": "AttributeSigned",
      "type": "event"
    },
    {
      "anonymous": false,
      "inputs": [
        {
          "indexed": true,
          "name": "revocationID",
          "type": "uint256"
        },
        {
          "indexed": true,
          "name": "signatureID",
          "type": "uint256"
        }
      ],
      "name": "SignatureRevoked",
      "type": "event"
    },
    {
      "constant": false,
      "inputs": [
        {
          "name": "attributeType",
          "type": "string"
        },
        {
          "name": "has_proof",
          "type": "bool"
        },
        {
          "name": "identifier",
          "type": "bytes32"
        },
        {
          "name": "data",
          "type": "string"
        },
        {
          "name": "datahash",
          "type": "string"
        }
      ],
      "name": "addAttribute",
      "outputs": [
        {
          "name": "attributeID",
          "type": "uint256"
        }
      ],
      "payable": false,
      "stateMutability": "nonpayable",
      "type": "function"
    },
    {
      "constant": false,
      "inputs": [
        {
          "name": "attributeID",
          "type": "uint256"
        },
        {
          "name": "expiry",
          "type": "uint256"
        }
      ],
      "name": "signAttribute",
      "outputs": [
        {
          "name": "signatureID",
          "type": "uint256"
        }
      ],
      "payable": false,
      "stateMutability": "nonpayable",
      "type": "function"
    },
    {
      "constant": false,
      "inputs": [
        {
          "name": "signatureID",
          "type": "uint256"
        }
      ],
      "name": "revokeSignature",
      "outputs": [
        {
          "name": "revocationID",
          "type": "uint256"
        }
      ],
      "payable": false,
      "stateMutability": "nonpayable",
      "type": "function"
    }
  ],
  "bytecode": "0x608060405234801561001057600080fd5b50610e9a806100206000396000f300608060405260043610610078576000357c0100000000000000000000000000000000000000000000000000000000900463ffffffff1680633da1f79a1461007d57806363da9cf8146100be5780638be1019414610109578063b181954d14610184578063d05dcc6a146102a7578063ed0c804914610472575b600080fd5b34801561008957600080fd5b506100a8600480360381019080803590602001909291905050506104b3565b6040518082815260200191505060405180910390f35b3480156100ca57600080fd5b506100f36004803603810190808035906020019092919080359060200190929190505050610599565b6040518082815260200191505060405180910390f35b34801561011557600080fd5b506101346004803603810190808035906020019092919050505061067d565b604051808473ffffffffffffffffffffffffffffffffffffffff1673ffffffffffffffffffffffffffffffffffffffff168152602001838152602001828152602001935050505060405180910390f35b34801561019057600080fd5b50610291600480360381019080803590602001908201803590602001908080601f01602080910402602001604051908101604052809392919081815260200183838082843782019150505050505091929192908035151590602001909291908035600019169060200190929190803590602001908201803590602001908080601f0160208091040260200160405190810160405280939291908181526020018383808284378201915050505050509192919290803590602001908201803590602001908080601f01602080910402602001604051908101604052809392919081815260200183838082843782019150505050505091929192905050506106d6565b6040518082815260200191505060405180910390f35b3480156102b357600080fd5b506102d260048036038101908080359060200190929190505050610979565b604051808773ffffffffffffffffffffffffffffffffffffffff1673ffffffffffffffffffffffffffffffffffffffff168152602001806020018615151515815260200185600019166000191681526020018060200180602001848103845289818151815260200191508051906020019080838360005b83811015610364578082015181840152602081019050610349565b50505050905090810190601f1680156103915780820380516001836020036101000a031916815260200191505b50848103835286818151815260200191508051906020019080838360005b838110156103ca5780820151818401526020810190506103af565b50505050905090810190601f1680156103f75780820380516001836020036101000a031916815260200191505b50848103825285818151815260200191508051906020019080838360005b83811015610430578082015181840152602081019050610415565b50505050905090810190601f16801561045d5780820380516001836020036101000a031916815260200191505b50995050505050505050505060405180910390f35b34801561047e57600080fd5b5061049d60048036038101908080359060200190929190505050610bb9565b6040518082815260200191505060405180910390f35b6000803373ffffffffffffffffffffffffffffffffffffffff166000848154811015156104dc57fe5b906000526020600020906006020160000160009054906101000a900473ffffffffffffffffffffffffffffffffffffffff1673ffffffffffffffffffffffffffffffffffffffff161415610593576002805480919060010161053e9190610be2565b915060028281548110151561054f57fe5b90600052602060002001905082816000018190555082827ff93d5095ac7696e643e1fa0aa35d622f4a13e11f4e199f30794679dcdcdb973760405160405180910390a35b50919050565b600080600180548091906001016105b09190610c0e565b91506001828154811015156105c157fe5b90600052602060002090600302019050338160000160006101000a81548173ffffffffffffffffffffffffffffffffffffffff021916908373ffffffffffffffffffffffffffffffffffffffff160217905550838160010181905550828160020181905550833373ffffffffffffffffffffffffffffffffffffffff16837f33a100675c6cfc265cebfab4d4b7a2f432674dd9f2b1f042546fad9dcaffe215866040518082815260200191505060405180910390a45092915050565b60018181548110151561068c57fe5b90600052602060002090600302016000915090508060000160009054906101000a900473ffffffffffffffffffffffffffffffffffffffff16908060010154908060020154905083565b600080600080548091906001016106ed9190610c40565b91506000828154811015156106fe57fe5b90600052602060002090600602019050338160000160006101000a81548173ffffffffffffffffffffffffffffffffffffffff021916908373ffffffffffffffffffffffffffffffffffffffff16021790555086816001019080519060200190610769929190610c72565b50858160020160006101000a81548160ff02191690831515021790555084816003018160001916905550838160040190805190602001906107ab929190610c72565b50828160050190805190602001906107c4929190610c72565b503373ffffffffffffffffffffffffffffffffffffffff16827f047cf141cc7263346dbeabf372ff57a4a47ce442cbd821d9e8e7654bc78080d5898989898960405180806020018615151515815260200185600019166000191681526020018060200180602001848103845289818151815260200191508051906020019080838360005b83811015610863578082015181840152602081019050610848565b50505050905090810190601f1680156108905780820380516001836020036101000a031916815260200191505b50848103835286818151815260200191508051906020019080838360005b838110156108c95780820151818401526020810190506108ae565b50505050905090810190601f1680156108f65780820380516001836020036101000a031916815260200191505b50848103825285818151815260200191508051906020019080838360005b8381101561092f578082015181840152602081019050610914565b50505050905090810190601f16801561095c5780820380516001836020036101000a031916815260200191505b509850505050505050505060405180910390a35095945050505050565b60008181548110151561098857fe5b90600052602060002090600602016000915090508060000160009054906101000a900473ffffffffffffffffffffffffffffffffffffffff1690806001018054600181600116156101000203166002900480601f016020809104026020016040519081016040528092919081815260200182805460018160011615610100020316600290048015610a5a5780601f10610a2f57610100808354040283529160200191610a5a565b820191906000526020600020905b815481529060010190602001808311610a3d57829003601f168201915b5050505050908060020160009054906101000a900460ff1690806003015490806004018054600181600116156101000203166002900480601f016020809104026020016040519081016040528092919081815260200182805460018160011615610100020316600290048015610b115780601f10610ae657610100808354040283529160200191610b11565b820191906000526020600020905b815481529060010190602001808311610af457829003601f168201915b505050505090806005018054600181600116156101000203166002900480601f016020809104026020016040519081016040528092919081815260200182805460018160011615610100020316600290048015610baf5780601f10610b8457610100808354040283529160200191610baf565b820191906000526020600020905b815481529060010190602001808311610b9257829003601f168201915b5050505050905086565b600281815481101515610bc857fe5b906000526020600020016000915090508060000154905081565b815481835581811115610c0957818360005260206000209182019101610c089190610cf2565b5b505050565b815481835581811115610c3b57600302816003028360005260206000209182019101610c3a9190610d19565b5b505050565b815481835581811115610c6d57600602816006028360005260206000209182019101610c6c9190610d6f565b5b505050565b828054600181600116156101000203166002900490600052602060002090601f016020900481019282601f10610cb357805160ff1916838001178555610ce1565b82800160010185558215610ce1579182015b82811115610ce0578251825591602001919060010190610cc5565b5b509050610cee9190610e01565b5090565b610d1691905b80821115610d125760008082016000905550600101610cf8565b5090565b90565b610d6c91905b80821115610d6857600080820160006101000a81549073ffffffffffffffffffffffffffffffffffffffff02191690556001820160009055600282016000905550600301610d1f565b5090565b90565b610dfe91905b80821115610dfa57600080820160006101000a81549073ffffffffffffffffffffffffffffffffffffffff0219169055600182016000610db59190610e26565b6002820160006101000a81549060ff02191690556003820160009055600482016000610de19190610e26565b600582016000610df19190610e26565b50600601610d75565b5090565b90565b610e2391905b80821115610e1f576000816000905550600101610e07565b5090565b90565b50805460018160011615610100020316600290046000825580601f10610e4c5750610e6b565b601f016020900490600052602060002090810190610e6a9190610e01565b5b505600a165627a7a723058205cb02568d19601e03b5a5c6cb4c9c0d317f63894942e9172db8a052391b253d90029",
  "source": "contract SCPKI {\r\n\r\n    struct Attribute {\r\n        address owner;\r\n        string attributeType;\r\n        bool has_proof;\r\n        bytes32 identifier;\r\n        string data;\r\n        string datahash;\r\n    }\r\n    struct Signature {\r\n        address signer;\r\n        uint attributeID;\r\n        uint expiry;\r\n    }\r\n    struct Revocation {\r\n        uint signatureID;\r\n    }\r\n    Attribute[] public attributes;\r\n    Signature[] public signatures;\r\n    Revocation[] public revocations;\r\n    \r\n    event AttributeAdded ( uint indexed attributeID, address indexed owner, string attributeType,\r\n    bool has_proof, bytes32 indexedidentifier , string data , string datahash);\r\n    \r\n    event AttributeSigned ( uint indexed signatureID , address indexed signer , uint indexed attributeID,\r\n    uint expiry);\r\n    \r\n    event SignatureRevoked ( uint indexed revocationID , uint indexed signatureID);\r\n\r\n    function addAttribute (string attributeType, bool has_proof,\r\n        bytes32 identifier, string data,\r\n        string datahash) public returns ( uint attributeID ) {\r\n\r\n        attributeID = attributes . length ++;\r\n        Attribute attribute = attributes[attributeID];\r\n        attribute.owner = msg.sender;\r\n        attribute.attributeType = attributeType;\r\n        attribute.has_proof = has_proof;\r\n        attribute.identifier = identifier;\r\n        attribute.data = data;\r\n        attribute.datahash = datahash;\r\n        emit AttributeAdded (attributeID, msg.sender, attributeType, has_proof, identifier, data, datahash);\r\n    }\r\n    function signAttribute (uint attributeID, uint expiry)\r\n             public returns ( uint signatureID) {\r\n        signatureID = signatures.length ++;\r\n        Signature signature = signatures [signatureID];\r\n        signature.signer = msg . sender;\r\n        signature.attributeID = attributeID;\r\n        signature.expiry = expiry;\r\n        emit AttributeSigned(signatureID, msg.sender, attributeID, expiry );\r\n    }\r\n    function revokeSignature ( uint signatureID )\r\n        public returns ( uint revocationID ) {\r\n        if ( attributes[signatureID].owner == msg.sender ) {\r\n            revocationID = revocations.length++;\r\n            Revocation revocation = revocations[revocationID];\r\n            revocation.signatureID = signatureID;\r\n            emit SignatureRevoked (revocationID, signatureID);\r\n        }\r\n    }\r\n}",
  "sourcePath": "C:/Users/Bc/Documents/GitHub/buidl/Codigo-Network/contracts/pki.sol",
  "compiler": {
    "name": "solc",
    "version": "0.4.26+commit.4563c3fc.Emscripten.clang"
  },
  "schemaVersion": "3.0.21",
  "updatedAt": "2020-07-15T15:05:08.764Z",
  "devdoc": {
    "methods": {}
  },
  "userdoc": {
    "methods": {}
  }
}