{
  "contractName": "SimpleMultiSig",
  "abi": [
    {
      "constant": true,
      "inputs": [],
      "name": "threshold",
      "outputs": [
        {
          "name": "",
          "type": "uint256"
        }
      ],
      "payable": false,
      "stateMutability": "view",
      "type": "function"
    },
    {
      "constant": true,
      "inputs": [
        {
          "name": "",
          "type": "uint256"
        }
      ],
      "name": "ownersArr",
      "outputs": [
        {
          "name": "",
          "type": "address"
        }
      ],
      "payable": false,
      "stateMutability": "view",
      "type": "function"
    },
    {
      "constant": true,
      "inputs": [],
      "name": "nonce",
      "outputs": [
        {
          "name": "",
          "type": "uint256"
        }
      ],
      "payable": false,
      "stateMutability": "view",
      "type": "function"
    },
    {
      "inputs": [
        {
          "name": "threshold_",
          "type": "uint256"
        },
        {
          "name": "owners_",
          "type": "address[]"
        }
      ],
      "payable": false,
      "stateMutability": "nonpayable",
      "type": "constructor"
    },
    {
      "payable": true,
      "stateMutability": "payable",
      "type": "fallback"
    },
    {
      "constant": false,
      "inputs": [
        {
          "name": "sigV",
          "type": "uint8[]"
        },
        {
          "name": "sigR",
          "type": "bytes32[]"
        },
        {
          "name": "sigS",
          "type": "bytes32[]"
        },
        {
          "name": "destination",
          "type": "address"
        },
        {
          "name": "value",
          "type": "uint256"
        },
        {
          "name": "data",
          "type": "bytes"
        }
      ],
      "name": "execute",
      "outputs": [],
      "payable": false,
      "stateMutability": "nonpayable",
      "type": "function"
    }
  ],
  "bytecode": "0x608060405234801561001057600080fd5b5060405161091538038061091583398101806040528101908080519060200190929190805182019291905050506000600a82511080156100505750815183105b801561005d575060008314155b151561006857600080fd5b600090505b81518110156100f257600160026000848481518110151561008a57fe5b9060200190602002015173ffffffffffffffffffffffffffffffffffffffff1673ffffffffffffffffffffffffffffffffffffffff16815260200190815260200160002060006101000a81548160ff021916908315150217905550808060010191505061006d565b8160039080519060200190610108929190610118565b50826001819055505050506101e5565b828054828255906000526020600020908101928215610191579160200282015b828111156101905782518260006101000a81548173ffffffffffffffffffffffffffffffffffffffff021916908373ffffffffffffffffffffffffffffffffffffffff16021790555091602001919060010190610138565b5b50905061019e91906101a2565b5090565b6101e291905b808211156101de57600081816101000a81549073ffffffffffffffffffffffffffffffffffffffff0219169055506001016101a8565b5090565b90565b610721806101f46000396000f300608060405260043610610062576000357c0100000000000000000000000000000000000000000000000000000000900463ffffffff16806342cde4e814610064578063aa5df9e21461008f578063affed0e0146100fc578063f12d394f14610127575b005b34801561007057600080fd5b50610079610283565b6040518082815260200191505060405180910390f35b34801561009b57600080fd5b506100ba60048036038101908080359060200190929190505050610289565b604051808273ffffffffffffffffffffffffffffffffffffffff1673ffffffffffffffffffffffffffffffffffffffff16815260200191505060405180910390f35b34801561010857600080fd5b506101116102c7565b6040518082815260200191505060405180910390f35b34801561013357600080fd5b50610281600480360381019080803590602001908201803590602001908080602002602001604051908101604052809392919081815260200183836020028082843782019150505050505091929192908035906020019082018035906020019080806020026020016040519081016040528093929190818152602001838360200280828437820191505050505050919291929080359060200190820180359060200190808060200260200160405190810160405280939291908181526020018383602002808284378201915050505050509192919290803573ffffffffffffffffffffffffffffffffffffffff16906020019092919080359060200190929190803590602001908201803590602001908080601f01602080910402602001604051908101604052809392919081815260200183838082843782019150505050505091929192905050506102cd565b005b60015481565b60038181548110151561029857fe5b906000526020600020016000915054906101000a900473ffffffffffffffffffffffffffffffffffffffff1681565b60005481565b60008060008060015489511415156102e457600080fd5b875189511415156102f457600080fd5b60197f01000000000000000000000000000000000000000000000000000000000000000260007f0100000000000000000000000000000000000000000000000000000000000000023089898960005460405180887effffffffffffffffffffffffffffffffffffffffffffffffffffffffffffff19167effffffffffffffffffffffffffffffffffffffffffffffffffffffffffffff19168152600101877effffffffffffffffffffffffffffffffffffffffffffffffffffffffffffff19167effffffffffffffffffffffffffffffffffffffffffffffffffffffffffffff191681526001018673ffffffffffffffffffffffffffffffffffffffff1673ffffffffffffffffffffffffffffffffffffffff166c010000000000000000000000000281526014018573ffffffffffffffffffffffffffffffffffffffff1673ffffffffffffffffffffffffffffffffffffffff166c0100000000000000000000000002815260140184815260200183805190602001908083835b602083101515610494578051825260208201915060208101905060208303925061046f565b6001836020036101000a0380198251168184511680821785525050505050509050018281526020019750505050505050506040518091039020935060009250600091505b60015482101561064a576001848b848151811015156104f357fe5b906020019060200201518b8581518110151561050b57fe5b906020019060200201518b8681518110151561052357fe5b90602001906020020151604051600081526020016040526040518085600019166000191681526020018460ff1660ff1681526020018360001916600019168152602001826000191660001916815260200194505050505060206040516020810390808403906000865af115801561059e573d6000803e3d6000fd5b5050506020604051035190508273ffffffffffffffffffffffffffffffffffffffff168173ffffffffffffffffffffffffffffffffffffffff161015801561062f5750600260008273ffffffffffffffffffffffffffffffffffffffff1673ffffffffffffffffffffffffffffffffffffffff16815260200190815260200160002060009054906101000a900460ff165b151561063a57600080fd5b80925081806001019250506104d8565b6001600054016000819055508673ffffffffffffffffffffffffffffffffffffffff16868660405180828051906020019080838360005b8381101561069c578082015181840152602081019050610681565b50505050905090810190601f1680156106c95780820380516001836020036101000a031916815260200191505b5091505060006040518083038185875af19250505015156106e957600080fd5b505050505050505050505600a165627a7a723058202090a62867c09f3e7cf4cd2302d59ec35600c8671cb7790c04d90858c501fbcf0029",
  "source": "/*\r\nThe code here is not mine.\r\nCredits should be given to: https://medium.com/@ChrisLundkvist/exploring-simpler-ethereum-multisig-contracts-b71020c19037\r\n*/\r\n\r\npragma solidity ^0.4.23;\r\ncontract SimpleMultiSig {\r\n\r\n    uint public nonce;                // (only) mutable state\r\n    uint public threshold;            // immutable state\r\n    mapping (address => bool) isOwner; // immutable state\r\n    address[] public ownersArr;        // immutable state\r\n\r\n    function SimpleMultiSig(uint threshold_, address[] owners_) public {\r\n        require(owners_.length < 10 && threshold_ < owners_.length && threshold_ != 0);\r\n        for (uint i=0; i<owners_.length; i++) {\r\n            isOwner[owners_[i]] = true;\r\n        }\r\n        ownersArr = owners_;\r\n        threshold = threshold_;\r\n    }\r\n\r\n    // Note that address recovered from signatures must be strictly increasing\r\n    function execute(uint8[] sigV, bytes32[] sigR, bytes32[] sigS, \r\n        address destination, uint value, bytes data) public {\r\n            \r\n        require(sigR.length == threshold);\r\n        require(sigR.length == sigS.length);\r\n\r\n        // Follows ERC191 signature scheme: https://github.com/ethereum/EIPs/issues/191\r\n        bytes32 txHash = keccak256(byte(0x19), byte(0), this, destination, value, data, nonce);\r\n\r\n        address lastAdd = address(0); // cannot have address(0) as an owner\r\n        for (uint i = 0; i < threshold; i++) {\r\n            address recovered = ecrecover(txHash, sigV[i], sigR[i], sigS[i]);\r\n            require(recovered >= lastAdd && isOwner[recovered]);\r\n            lastAdd = recovered;\r\n        }\r\n\r\n        // If we make it here all signatures are accounted for\r\n        nonce = nonce + 1;\r\n        // Make the transaction //\r\n        require(destination.call.value(value)(data));\r\n    }\r\n\r\n    function () payable {}\r\n}",
  "sourcePath": "C:/Users/Bc/Documents/GitHub/buidl/Codigo-Network/contracts/multisig.sol",
  "compiler": {
    "name": "solc",
    "version": "0.4.26+commit.4563c3fc.Emscripten.clang"
  },
  "schemaVersion": "3.0.21",
  "updatedAt": "2020-07-15T15:05:08.761Z",
  "devdoc": {
    "methods": {}
  },
  "userdoc": {
    "methods": {}
  }
}