{
  "contractName": "state",
  "abi": [
    {
      "constant": false,
      "inputs": [
        {
          "name": "cv_n",
          "type": "uint256"
        }
      ],
      "name": "set_version",
      "outputs": [],
      "payable": false,
      "stateMutability": "nonpayable",
      "type": "function"
    },
    {
      "constant": false,
      "inputs": [],
      "name": "get_version",
      "outputs": [
        {
          "name": "",
          "type": "uint256"
        }
      ],
      "payable": false,
      "stateMutability": "nonpayable",
      "type": "function"
    }
  ],
  "bytecode": "0x608060405260016000556000600160006101000a81548160ff021916908360ff16021790555034801561003157600080fd5b5061019b806100416000396000f30060806040526004361061004c576000357c0100000000000000000000000000000000000000000000000000000000900463ffffffff1680636c6ec15a14610051578063901794651461007a575b600080fd5b34801561005d57600080fd5b50610078600480360361007391908101906100fa565b6100a5565b005b34801561008657600080fd5b5061008f6100af565b60405161009c9190610132565b60405180910390f35b8060008190555050565b600060018060008282829054906101000a900460ff160192506101000a81548160ff021916908360ff160217905550600054905090565b60006100f28235610157565b905092915050565b60006020828403121561010c57600080fd5b600061011a848285016100e6565b91505092915050565b61012c8161014d565b82525050565b60006020820190506101476000830184610123565b92915050565b6000819050919050565b60008190509190505600a265627a7a723058209d45befc2dc6779d5cf5cd34811fc4f488f4f2c111d7214d87a64fa7f7a95d616c6578706572696d656e74616cf50037",
  "source": "pragma solidity ^0.4.23;\r\npragma experimental ABIEncoderV2;\r\n\r\n\r\ncontract state {\r\n    uint256 contract_version = 1;\r\n    uint8 pp = 0;\r\n    function set_version(uint256 cv_n) public {\r\n        contract_version = cv_n;\r\n    }\r\n    function get_version() public returns (uint256) {\r\n        pp += 1;\r\n        return contract_version;\r\n    }\r\n}\r\n\r\ncontract complicated {\r\n    state st;\r\n    uint8 tt = 0;\r\n    constructor() public {\r\n        address st_address = new state();\r\n        st = state(st_address);\r\n    }\r\n    \r\n    function set_version(uint256 cv_n) public {\r\n        st.set_version(cv_n);\r\n    }\r\n\r\n    function get_version() public returns (uint256) {\r\n        tt += 1;\r\n        return st.get_version();\r\n    }\r\n}",
  "sourcePath": "C:/Users/Bc/Documents/GitHub/buidl/Codigo-Network/contracts/complicated_test.sol",
  "compiler": {
    "name": "solc",
    "version": "0.4.26+commit.4563c3fc.Emscripten.clang"
  },
  "schemaVersion": "3.0.21",
  "updatedAt": "2020-07-15T15:05:08.751Z",
  "devdoc": {
    "methods": {}
  },
  "userdoc": {
    "methods": {}
  }
}