{
  "contractName": "Web_Of_Trust",
  "abi": [
    {
      "constant": false,
      "inputs": [
        {
          "name": "trusted_address",
          "type": "address"
        }
      ],
      "name": "endorse_trust",
      "outputs": [],
      "payable": false,
      "stateMutability": "nonpayable",
      "type": "function"
    },
    {
      "constant": false,
      "inputs": [
        {
          "name": "untrusted_address",
          "type": "address"
        }
      ],
      "name": "revoke_trust",
      "outputs": [],
      "payable": false,
      "stateMutability": "nonpayable",
      "type": "function"
    },
    {
      "constant": true,
      "inputs": [
        {
          "name": "target",
          "type": "address"
        },
        {
          "name": "origin",
          "type": "address"
        }
      ],
      "name": "bfs",
      "outputs": [
        {
          "name": "",
          "type": "int256"
        }
      ],
      "payable": false,
      "stateMutability": "view",
      "type": "function"
    },
    {
      "constant": false,
      "inputs": [
        {
          "name": "target",
          "type": "address"
        },
        {
          "name": "origin",
          "type": "address"
        }
      ],
      "name": "hop_to_target",
      "outputs": [
        {
          "name": "",
          "type": "int256"
        }
      ],
      "payable": false,
      "stateMutability": "nonpayable",
      "type": "function"
    },
    {
      "constant": false,
      "inputs": [
        {
          "name": "cv_n",
          "type": "uint256"
        }
      ],
      "name": "set_version",
      "outputs": [],
      "payable": false,
      "stateMutability": "nonpayable",
      "type": "function"
    },
    {
      "constant": true,
      "inputs": [],
      "name": "get_version",
      "outputs": [
        {
          "name": "",
          "type": "uint256"
        }
      ],
      "payable": false,
      "stateMutability": "view",
      "type": "function"
    },
    {
      "constant": true,
      "inputs": [
        {
          "name": "t",
          "type": "address"
        }
      ],
      "name": "get_from_mapping",
      "outputs": [
        {
          "name": "",
          "type": "address"
        }
      ],
      "payable": false,
      "stateMutability": "view",
      "type": "function"
    }
  ],
  "bytecode": "0x6080604052600160025534801561001557600080fd5b506113e5806100256000396000f300608060405260043610610083576000357c0100000000000000000000000000000000000000000000000000000000900463ffffffff1680630a4e09291461008857806369a03018146100cb5780636c6ec15a14610142578063901794651461016f578063be7ac8aa1461019a578063c04a2e24146101dd578063eb4d33d814610260575b600080fd5b34801561009457600080fd5b506100c9600480360381019080803573ffffffffffffffffffffffffffffffffffffffff1690602001909291905050506102d7565b005b3480156100d757600080fd5b5061012c600480360381019080803573ffffffffffffffffffffffffffffffffffffffff169060200190929190803573ffffffffffffffffffffffffffffffffffffffff16906020019092919050505061073d565b6040518082815260200191505060405180910390f35b34801561014e57600080fd5b5061016d60048036038101908080359060200190929190505050610791565b005b34801561017b57600080fd5b5061018461079b565b6040518082815260200191505060405180910390f35b3480156101a657600080fd5b506101db600480360381019080803573ffffffffffffffffffffffffffffffffffffffff1690602001909291905050506107a5565b005b3480156101e957600080fd5b5061021e600480360381019080803573ffffffffffffffffffffffffffffffffffffffff169060200190929190505050610a37565b604051808273ffffffffffffffffffffffffffffffffffffffff1673ffffffffffffffffffffffffffffffffffffffff16815260200191505060405180910390f35b34801561026c57600080fd5b506102c1600480360381019080803573ffffffffffffffffffffffffffffffffffffffff169060200190929190803573ffffffffffffffffffffffffffffffffffffffff169060200190929190505050610ab8565b6040518082815260200191505060405180910390f35b6000806000803373ffffffffffffffffffffffffffffffffffffffff1673ffffffffffffffffffffffffffffffffffffffff16815260200190815260200160002060008473ffffffffffffffffffffffffffffffffffffffff1673ffffffffffffffffffffffffffffffffffffffff16815260200190815260200160002060009054906101000a900460ff16151561036e57600080fd5b60008060003373ffffffffffffffffffffffffffffffffffffffff1673ffffffffffffffffffffffffffffffffffffffff16815260200190815260200160002060008573ffffffffffffffffffffffffffffffffffffffff1673ffffffffffffffffffffffffffffffffffffffff16815260200190815260200160002060006101000a81548160ff02191690831515021790555060009150600090505b60018060003373ffffffffffffffffffffffffffffffffffffffff1673ffffffffffffffffffffffffffffffffffffffff1681526020019081526020016000208054905003811015610628578273ffffffffffffffffffffffffffffffffffffffff16600160003373ffffffffffffffffffffffffffffffffffffffff1673ffffffffffffffffffffffffffffffffffffffff168152602001908152602001600020828154811015156104ba57fe5b9060005260206000200160009054906101000a900473ffffffffffffffffffffffffffffffffffffffff1673ffffffffffffffffffffffffffffffffffffffff16141561050657600191505b811561061b57600160003373ffffffffffffffffffffffffffffffffffffffff1673ffffffffffffffffffffffffffffffffffffffff1681526020019081526020016000206001820181548110151561055b57fe5b9060005260206000200160009054906101000a900473ffffffffffffffffffffffffffffffffffffffff16600160003373ffffffffffffffffffffffffffffffffffffffff1673ffffffffffffffffffffffffffffffffffffffff168152602001908152602001600020828154811015156105d257fe5b9060005260206000200160006101000a81548173ffffffffffffffffffffffffffffffffffffffff021916908373ffffffffffffffffffffffffffffffffffffffff1602179055505b808060010191505061040b565b600160003373ffffffffffffffffffffffffffffffffffffffff1673ffffffffffffffffffffffffffffffffffffffff16815260200190815260200160002060018060003373ffffffffffffffffffffffffffffffffffffffff1673ffffffffffffffffffffffffffffffffffffffff16815260200190815260200160002080549050038154811015156106b857fe5b9060005260206000200160006101000a81549073ffffffffffffffffffffffffffffffffffffffff0219169055600160003373ffffffffffffffffffffffffffffffffffffffff1673ffffffffffffffffffffffffffffffffffffffff168152602001908152602001600020805480919060019003610737919061133c565b50505050565b60008060008061074e858785611085565b8093508192505050811561076457809350610788565b7fffffffffffffffffffffffffffffffffffffffffffffffffffffffffffffffff93505b50505092915050565b8060028190555050565b6000600254905090565b6000803373ffffffffffffffffffffffffffffffffffffffff1673ffffffffffffffffffffffffffffffffffffffff16815260200190815260200160002060008273ffffffffffffffffffffffffffffffffffffffff1673ffffffffffffffffffffffffffffffffffffffff16815260200190815260200160002060009054906101000a900460ff1615151561083a57600080fd5b8073ffffffffffffffffffffffffffffffffffffffff163373ffffffffffffffffffffffffffffffffffffffff161415151561087557600080fd5b60016000803373ffffffffffffffffffffffffffffffffffffffff1673ffffffffffffffffffffffffffffffffffffffff16815260200190815260200160002060008373ffffffffffffffffffffffffffffffffffffffff1673ffffffffffffffffffffffffffffffffffffffff16815260200190815260200160002060006101000a81548160ff021916908315150217905550600160003373ffffffffffffffffffffffffffffffffffffffff1673ffffffffffffffffffffffffffffffffffffffff168152602001908152602001600020805480919060010161095a919061133c565b5080600160003373ffffffffffffffffffffffffffffffffffffffff1673ffffffffffffffffffffffffffffffffffffffff16815260200190815260200160002060018060003373ffffffffffffffffffffffffffffffffffffffff1673ffffffffffffffffffffffffffffffffffffffff16815260200190815260200160002080549050038154811015156109ec57fe5b9060005260206000200160006101000a81548173ffffffffffffffffffffffffffffffffffffffff021916908373ffffffffffffffffffffffffffffffffffffffff16021790555050565b6000600160008373ffffffffffffffffffffffffffffffffffffffff1673ffffffffffffffffffffffffffffffffffffffff1681526020019081526020016000206000815481101515610a8657fe5b9060005260206000200160009054906101000a900473ffffffffffffffffffffffffffffffffffffffff169050919050565b60008060008060008060008060018760000160008c73ffffffffffffffffffffffffffffffffffffffff1673ffffffffffffffffffffffffffffffffffffffff16815260200190815260200160002060006101000a81548160ff021916908315150217905550858054809190600101610b319190611368565b5088866001888054905003815481101515610b4857fe5b9060005260206000200160006101000a81548173ffffffffffffffffffffffffffffffffffffffff021916908373ffffffffffffffffffffffffffffffffffffffff1602179055506001945060009350600092505b841561107457856001878054905003815481101515610bb857fe5b9060005260206000200160009054906101000a900473ffffffffffffffffffffffffffffffffffffffff16915085805480919060019003610bf99190611368565b506000808373ffffffffffffffffffffffffffffffffffffffff1673ffffffffffffffffffffffffffffffffffffffff16815260200190815260200160002060008b73ffffffffffffffffffffffffffffffffffffffff1673ffffffffffffffffffffffffffffffffffffffff16815260200190815260200160002060009054906101000a900460ff1615610c9357600184019350600094505b600090505b600160008373ffffffffffffffffffffffffffffffffffffffff1673ffffffffffffffffffffffffffffffffffffffff16815260200190815260200160002080549050811015611031578973ffffffffffffffffffffffffffffffffffffffff16600160008473ffffffffffffffffffffffffffffffffffffffff1673ffffffffffffffffffffffffffffffffffffffff16815260200190815260200160002082815481101515610d4557fe5b9060005260206000200160009054906101000a900473ffffffffffffffffffffffffffffffffffffffff1673ffffffffffffffffffffffffffffffffffffffff161415610d9157600094505b848015610e605750866000016000600160008573ffffffffffffffffffffffffffffffffffffffff1673ffffffffffffffffffffffffffffffffffffffff16815260200190815260200160002083815481101515610deb57fe5b9060005260206000200160009054906101000a900473ffffffffffffffffffffffffffffffffffffffff1673ffffffffffffffffffffffffffffffffffffffff1673ffffffffffffffffffffffffffffffffffffffff16815260200190815260200160002060009054906101000a900460ff16155b15611024576001876000016000600160008673ffffffffffffffffffffffffffffffffffffffff1673ffffffffffffffffffffffffffffffffffffffff16815260200190815260200160002084815481101515610eb957fe5b9060005260206000200160009054906101000a900473ffffffffffffffffffffffffffffffffffffffff1673ffffffffffffffffffffffffffffffffffffffff1673ffffffffffffffffffffffffffffffffffffffff16815260200190815260200160002060006101000a81548160ff021916908315150217905550858054809190600101610f489190611368565b50600160008373ffffffffffffffffffffffffffffffffffffffff1673ffffffffffffffffffffffffffffffffffffffff16815260200190815260200160002081815481101515610f9557fe5b9060005260206000200160009054906101000a900473ffffffffffffffffffffffffffffffffffffffff16866001888054905003815481101515610fd557fe5b9060005260206000200160006101000a81548173ffffffffffffffffffffffffffffffffffffffff021916908373ffffffffffffffffffffffffffffffffffffffff1602179055506001840193505b8080600101915050610c98565b848015611042575085805490506000145b1561106f577fffffffffffffffffffffffffffffffffffffffffffffffffffffffffffffffff9750611078565b610b9d565b8397505b5050505050505092915050565b60008060008060008060008060018960000160008d73ffffffffffffffffffffffffffffffffffffffff1673ffffffffffffffffffffffffffffffffffffffff16815260200190815260200160002060006101000a81548160ff0219169083151502179055508973ffffffffffffffffffffffffffffffffffffffff168b73ffffffffffffffffffffffffffffffffffffffff16141561112f57600060018191509750975061132e565b6000808c73ffffffffffffffffffffffffffffffffffffffff1673ffffffffffffffffffffffffffffffffffffffff16815260200190815260200160002060008b73ffffffffffffffffffffffffffffffffffffffff1673ffffffffffffffffffffffffffffffffffffffff16815260200190815260200160002060009054906101000a900460ff16156111cc576001808191509750975061132e565b60009550600a9450600093505b600160008c73ffffffffffffffffffffffffffffffffffffffff1673ffffffffffffffffffffffffffffffffffffffff168152602001908152602001600020805490508410156113275760019250600160008c73ffffffffffffffffffffffffffffffffffffffff1673ffffffffffffffffffffffffffffffffffffffff1681526020019081526020016000208481548110151561127357fe5b9060005260206000200160009054906101000a900473ffffffffffffffffffffffffffffffffffffffff1691508860000160008373ffffffffffffffffffffffffffffffffffffffff1673ffffffffffffffffffffffffffffffffffffffff16815260200190815260200160002060009054906101000a900460ff16151561130e57611300828b8b611085565b809750819250505080830192505b8483121561131a578294505b83806001019450506111d9565b8486975097505b505050505050935093915050565b815481835581811115611363578183600052602060002091820191016113629190611394565b5b505050565b81548183558181111561138f5781836000526020600020918201910161138e9190611394565b5b505050565b6113b691905b808211156113b257600081600090555060010161139a565b5090565b905600a165627a7a72305820731241c7eaab67a8c5cca159698f309d89f1ccd164f0a51008bb0febbf1b17050029",
  "source": "contract Web_Of_Trust {\r\n    \r\n    // Avoid storing duplicates in the list\r\n    mapping (address => mapping(address => bool)) trust_lookup;\r\n    // Trust graph core\r\n    mapping(address => address[]) trust_graph;\r\n\r\n    // Hack to pass mapping as function argument\r\n    struct map_struct {\r\n        mapping(address => bool) visited;\r\n    }\r\n\r\n    // Senders trusts a target address\r\n    function endorse_trust(address trusted_address) public {\r\n        require(!trust_lookup[msg.sender][trusted_address]);\r\n        require(msg.sender != trusted_address);\r\n        trust_lookup[msg.sender][trusted_address] = true;\r\n        trust_graph[msg.sender].length++;\r\n        trust_graph[msg.sender][trust_graph[msg.sender].length - 1] = trusted_address; \r\n    }\r\n\r\n    function revoke_trust(address untrusted_address) public {\r\n        // The address is already trusted\r\n        require(trust_lookup[msg.sender][untrusted_address]);\r\n        trust_lookup[msg.sender][untrusted_address] = false;\r\n        bool found_untrusted_address = false;\r\n        for (uint256 i = 0; i < trust_graph[msg.sender].length - 1; i++) {\r\n\r\n            if (trust_graph[msg.sender][i]==untrusted_address)\r\n                found_untrusted_address = true;\r\n\r\n            if (found_untrusted_address){\r\n                trust_graph[msg.sender][i] =  trust_graph[msg.sender][i+1];\r\n            }\r\n        }\r\n        delete trust_graph[msg.sender][trust_graph[msg.sender].length-1];\r\n        trust_graph[msg.sender].length--;\r\n    }\r\n\r\n    function bfs(address target, address origin) public view returns (int256) {\r\n        map_struct ss;\r\n        ss.visited[target] = true;\r\n        address[] qq;\r\n        qq.length++;\r\n        qq[qq.length - 1] = origin;\r\n        bool searching = true;\r\n        int256 hops = 0;\r\n        uint256 q_btm = 0;\r\n        while (searching){\r\n            address curr = qq[qq.length - 1];\r\n            qq.length --;\r\n            if (trust_lookup[curr][target]){\r\n                hops += 1;\r\n                searching = false;\r\n            }\r\n            for (uint256 i = 0; i < trust_graph[curr].length; i++){\r\n                if (trust_graph[curr][i] == target)\r\n                    searching = false;\r\n                \r\n                if (searching && !ss.visited[trust_graph[curr][i]]){\r\n                    ss.visited[trust_graph[curr][i]] = true;\r\n                    qq.length++;\r\n                    qq[qq.length - 1] = trust_graph[curr][i];\r\n                    hops += 1;\r\n                }\r\n            }\r\n            if (searching && 0 == qq.length){\r\n                return -1;\r\n            }\r\n        }\r\n        \r\n        return hops;\r\n    }\r\n\r\n\r\n\r\n    function hop_to_target(address target, address origin /*uint8 threshold*/) public returns (int256){\r\n        map_struct storage ss;\r\n        bool found;\r\n        int256 hops;\r\n        (hops,found) = hop_internal_rec(origin,target,ss);\r\n        if (found)\r\n            return hops;\r\n        else\r\n            return -1;\r\n    }\r\n    \r\n    // TODO: Calculate Big O notation for the algorithm and write documentation :)\r\n\r\n    function hop_internal_rec(address origin, address target, map_struct storage ss /*uint8 threshold*/)\r\n            internal returns (int256,bool){\r\n        ss.visited[origin] = true;\r\n        if (origin == target)\r\n            return (0,true);\r\n        \r\n        if (trust_lookup[origin][target])\r\n            return (1,true);\r\n        bool found = false;\r\n        int256 hops = 10;\r\n        for (uint256 i = 0; i < trust_graph[origin].length; i++){\r\n            int256 curr_hops = 1;\r\n            address nxt_node = trust_graph[origin][i];\r\n            if (!ss.visited[nxt_node]){\r\n                int256 req_hops;\r\n                (req_hops,found) = hop_internal_rec(nxt_node,target,ss /*threshold*/);\r\n                curr_hops += req_hops;\r\n            }\r\n            if (curr_hops < hops){\r\n                hops = curr_hops;\r\n            }\r\n        }\r\n        return (hops,found);\r\n    }\r\n\r\n    //====== Debug Functions & State ======//\r\n    uint256 contract_version = 1;\r\n\r\n    function set_version(uint256 cv_n) public {\r\n        contract_version = cv_n;\r\n    }\r\n\r\n    function get_version() public view returns (uint256) {\r\n        return contract_version;\r\n    }\r\n\r\n    function addr_to_string(address x) internal returns (string) {\r\n        bytes memory b = new bytes(20);\r\n        for (uint i = 0; i < 20; i++)\r\n            b[i] = byte(uint8(uint(x) / (2**(8*(19 - i)))));\r\n        return string(b);\r\n    }\r\n\r\n    function get_from_mapping(address t) public view returns (address){\r\n        return trust_graph[t][0];\r\n    }\r\n\r\n    //===================================//\r\n}\r\n\r\n\r\n\r\n",
  "sourcePath": "C:\\Users\\Bc\\Documents\\GitHub\\buidl\\Codigo-Network\\contracts\\webTrust.sol",
  "compiler": {
    "name": "solc",
    "version": "0.4.26+commit.4563c3fc.Emscripten.clang"
  },
  "schemaVersion": "3.0.21",
  "updatedAt": "2020-07-15T15:11:17.209Z",
  "devdoc": {
    "methods": {}
  },
  "userdoc": {
    "methods": {}
  }
}